:4000000000400020110000009D0800009D08000010B500F04BFCC04610B512221C4B1A60302000F0CDFE1B4A1B4B1A601B4A1C4B1A601C4B1C4A1A6000241C4A14601C4AE8
:400040001A60C82149011B4A11601B4A1A60802212061A4B1A608022D202194B1A604222184B1A60402318490B6018490A60184A1360184A13604122174B1A601749072086
:4000800000F0D6FD072000F0BDFD154B1C6010BD300010400600008004010B4000DF0100080301400000014042FF00800003014040FF00800403014041FF008008010B4020
:4000C00000010B404C0101403801014034010140300101402C01014014010140010F00000C020B4010B572B600240FE02A486200131959000B00411889881A5AC31858889A
:400100000004104300F0C4FB0134E4B2012CEDD921490C3121486C3000F090FB3322204B1A60EE2212021F4B1A6099221E4B1A6099231B041D4A1360B021C9031C4A1160CB
:400140001C4A13601C4A1D4B1A601D490B783C22934314221343DBB20B701A4A117816230B43DBB213700323174A13601749184A1160184A1360184A184B1A600223184A61
:4001800013603121174A1160174A1360FFF744FF00F06EFB10BDC046002100008021000000010240000302400007024010500F4018500F4030500F40F000040060012040F2
:4001C00001700F4000700F4000010440360018000801044000030440920D00000803044000070440080704401807044010B5064C2378002B07D1054B002B02D0044800E03C
:4002000000BF0123237010BD4801002000000000F4200000084B10B5002B03D00749084800E000BF07480368002B00D110BD064B002BFBD09847F9E7000000004C010020B3
:40024000F4200000C000002000000000024B186059609A607047C04664010020064BFE2292051A6000225A609A60DA601A61034A5A61034A9A6170476401002000FF7FC7F2
:4002800000FF7F47014BD8617047C04664010020014B18627047C04664010020014B58627047C04664010020F0B585B0334A936A591C91620F2B08DD0022304B9A6200F0FE
:4002C00085FCC043C0B200F075FC2C4CE3691868266A316801F0CCFC051C676A216801F0B3FB029038606168281C01F0ADFB216901F084F9051CA3691C1C0393191C01F07E
:4003000069F9002800D0251C1C4B5B691C1C0193191C281C01F04AF9002800D0251C174C25610299281C01F069F9051C38603668E168301C01F09CFCE660A16801F084FBF6
:40034000011C281C01F094FC051C3860011C039C201C01F02BF9002800D0251C3D600199281C01F023F9002800D0019D3D60012000F078FE00F010FC05B0F0BD6401002077
:4003800010B504000B4B984203DC0B4B984202DB02E0084C00E0084C002C04DA012000F003FC644202E0002000F0FEFB200000F057FB10BDFFFF00000100FFFF10B5002032
:4003C00000F0F2FB002000F04BFB00F09FFB10BD30B50D4C10E0435C5C40012308E0012525406408002D01D0084D6C400133DBB2082BF4D90131C9B29142ECD3200A2402B8
:4004000020430004000C30BDFFFF000001A00000034B1B7813705070490091707047C046E001002010B5054C24781C705870080A9870D970002119715A7110BDE0010020E4
:4004400010B5054C24781C705870080A9870D970110A19715A7110BDE0010020034B1B7813708038507091707047C046E001002070B505000C000A000021FFF7A9FF031226
:400480002B550134E4B2285570BDC04670B506000D00FFF7EDFF0235EDB2002404E0305D00F040FE0134E4B2AC42F8D3200070BD70B50600002406E0351900F0F3FE2870C1
:4004C0000134FF2C05DC00F019FE0028F4D1200001E00120404270BD70B50500FFF7E8FF041E17DD821ED2B200212800FFF770FF2B199A1E11780902013B1A780B00134348
:40050000984208D12A78064B1B789A4206D00120404204E003E00120404200E0200070BDE001002030B5002305E01D49CC5C41788C4204D00133022BF7D9002300E0012367
:40054000002B23D04378062B07D183781B02C1785B1893421CD3022021E00179090244790919032B02D0102B03D101E07D2500E07B2500290ED0A9420ED883781B02C07850
:400580001B18C9188A4209D2022008E0012006E0002004E0032002E0032000E0002030BDF820000030B500230BE05C000C19E5792D021C1D6400645C25431C18A40015513A
:4005C00001334C79A342F0D3180030BD70B582B0040015001E006B460A0001001020FFF721FF320029002000FFF7DCFF002804D006216846FFF74AFF00E0002002B070BD8A
:4006000070B582B0050016000C7924024B791C436B46220001000620FFF712FFAD00745106216846FFF732FF02B070BDF0B5C1B004000D0016006A460320FFF7E9FE23001C
:40064000032108E09A00B25810126F467854481C3A540231013362199342F3D3C9B26846FFF714FF41B0F0BDF0B5C3B006000D00140000F043FD2D4B1A685B6817002C4930
:400680000E70002803D100222A4B1A604BE029490968884206D0274B18600532264B1A60002040E0244B1B689F4239D30022214B1A6002A8FFF710FF002834DDC1B2220051
:4006C00002A8FFF72FFF041E0BD0C1B202AB58786A46FFF7C3FE03216846FFF7D7FE200021E002AB98780002DA7880185B78062B10D0102B07D0032B14D102AB59792A00BF
:40070000FFF794FF0FE002AB59792B0002AAFFF75DFF08E02A0002A9FFF772FF002002E0002000E0002043B0F0BDC04698010020E0010020DC0100209001002070B50749D0
:400740000C684D680122002312196B410A604B60012000F029FE00F063FE70BD9801002010B5034800F04EFE00F00EFE10BDC0463D070000F0B583B062B6002000F01AFA3C
:4007800000F092FCFFF7ECFF00F04AF9002000F0D7F8FFF713FEFFF761FD2248FFF772FD2148FFF775FD2148FFF778FD204800F0E5F900F047FC00221E4BDA601D4C05223B
:4007C00021000120FFF750FF00F0C2F81A4B9C466044154D01F0F4FB2860144B186801F0CDFBFFF7CDFD286801F0C8FB2061E568280001F0E5FB0B4B186000230193019595
:4008000026686768A06801F0DBFB051C380001F0D7FB041C300001F0D3FB2A1C211CFFF715FDCBE7E4010020EC010020E8010020A9020000F00100200080FFFFF0B5002505
:40084000002711E0BB00C658F3B2FF22964308E06A008A181478A419527822700135013BDBB2002BF4D10137052FEBD9F0BDC0460323044A1360044A13600022034B1A60EB
:400880007047C0463000304030003140000E3F4010B50A00002101F025FC10BD10B501F0F5FB03680C2B00D1FEE7FEE770B50F4E0F4D13E029686B68AC68002202E001C9E4
:4008C00001C30432A242FAD1E868002202E0002102C304328242FAD11035013E002EE9D101F0DAFBFFF746FFFEE7C04601000000B422000010B50E4A136801218B43136026
:4009000000230AE0032B03D89A000A49505800E009489900094A885001332F2BF2D9FFF7E1FB034A116801230B43136010BDC04600001040000000009D0800000000002059
:400940000004000C014B18607047C04648012040024B18680004000C7047C0464801204010B5040000F06DFD054B1968054A0A401A601A6814431C6000F067FD10BDC04677
:4009800040012040FFFFFCFF0004000C014B18607047C0465401204070B504000D0000F050FDAC40024B1C6000F04FFD70BDC0460800204010B500F044FD064A1168022374
:4009C0000B43136000F041FD08210220FFF7E4FF10BDC04600002040014B18607047C0467801204010B5C02292040B4B1A60C32292000A4B1A600020FFF7EEFF802040021F
:400A0000FFF7AEFF802424022000FFF7BDFF2000FFF796FF10BDC046400120406401204010B5064B1B78002B04D1FFF7DBFF0122024B1A70FFF7BEFF10BDC046A0010020D9
:400A40000004000C014B18607047C046080120400004000C014B18607047C046140120400004000C014B18607047C0460C01204070B504000D0000F0E4FCAC40024B1C60BD
:400A800000F0E3FC70BDC0460800204010B500F0D8FC064A116801230B43136000F0D5FC18210120FFF7E4FF10BDC04600002040014B18607047C0463801204010B50F4C34
:400AC0008023DB042360236823600020FFF7B8FF2368C0229200134323600C22084B1A600020FFF7E5FF3122064B1A600648FFF7AFFF80200002FFF7B3FF10BD00012040C1
:400B00002401204028012040FFFF000010B5064B1B78002B04D1FFF7D1FF0122024B1A70FFF7B4FF10BDC046A10100209823014AD05070470000002010B5040000F081FCCF
:400B4000044A1168044B0B40A4051C43146000F07CFC10BD14E400E0FFFF3FFF8022D203014B1A607047C04600E100E08022D203014B1A607047C04680E100E010B5040090
:400B8000FFF7F4FF2000FFF7D1FF0320FFF7D4FFFFF7E4FF10BDC0468022D203014B1A607047C04680E200E0014B18707047C04672000F4004490A68D2B240239A4380013C
:400BC000184010430860704700010440024B1868800901231840704704010440024A1168024B0B401360704700002240FFFFFFBF034B18688023DB05184000D0012070471E
:400C0000000022401F2318401E3B8340014A13607047C04600E100E01F2318401E3B8340014A13607047C04680E100E001BE704770B504000D001F2802D90020FFF7F6FF15
:400C40001034A40080239B059C4664442068256070BDC04670B504000E00032902D90020FFF7E4FF1F2C02D90020FFF7DFFF03252540ED00063500F0E4FBA408A400074B08
:400C80009C46644421680323AB4099430B003100A9401943216000F0D8FB70BD00E400E010B5040006E0084B586800F0C1FB074B9C46644480231B029C42F4D8024B98687D
:400CC000604300F0B5FB10BDC40000200080FFFF30B583B000F0BEF800285AD000F0B1FB040000230AE02C4A12683F210A402B49C95C8A4201D1033303E001332D2BF2D984
:400D00000323274A1268D20606D1254802681F218A4313390A430260224A1168224A0A40224959438020C00184466144C90B01394905490D0A43A021490311430800192BF6
:400D400002D81B4B1A430EE01A4A9A1812781A3B1249C9183023CB5CD318FF2B00D9FF239B0502001A430F4B1A60134D2B680193302000F06DFB114A13688021C9050B4398
:400D800013601420FFF78CFF019B2B60200000F05CFB03B030BDC0462CFF0B400422000034FF0B400800224000F800C040420F000000D43FCDF1FF0F300010400000224049
:400DC00030B587B0040000F03CFB0500FFF710FF002803D0FFF702FF012100E00021104B1B6800930F4B1B680193033C0E4B1B5D02930E4B1B68039304AA0D4B04936B4646
:400E000005930C4B1A600C480C4A10601B68012901D1FFF75DFF280000F017FB07B030BD08010B4000010B400422000030001040B6EA000008001040170000800400104067
:400E4000034B1868C0231B02184000D00120704700010B40034B1B68002B01DA012000E0002070470000224010B500F0EAFA044A1368C02109020B43136000F0E6FA10BD9B
:400E800000010B4010B500F0DCFA08490A68084B1A408024E40122430A600A6813408022120213430B6000F0D0FA10BD00010B40FF3FFFFF70B5050000F0C3FA0400FFF777
:400EC000BFFF002803D0FFF7DDFF012100E0002108482840084A1568084B2B40184310601368012901D1FFF7BFFF200000F0ADFA70BDC0460404040010020B40FBFBFBFFC6
:400F000010B5244B1B685B0715D5234B5B685B070ED5224B596A042001401F4C62688A4362605A6A82435A629B69002B00D098470420FFF7BFFF174B1B685B0518D5164B51
:400F40005B685B0510D5154B596A8022D2001140114842688A434260596A114A0A405A62DB69002B00D098478020C000FFF7A2FF084B1B685B030CD5074B5B685B0304D575
:400F8000064B1B6A002B00D098478020C002FFF791FF10BD10020B40D8000020A4010020FFFBFFFF0004000C014B18607047C046C80120400004000C014B18607047C0466F
:400FC000D401204070B504000D0000F03AFAAC40024B1C6000F039FA70BDC0460800204010B500F02EFA064A116808230B43136000F02BFA18210820FFF7E4FF10BDC0463B
:4010000000002040014B18607047C046F801204010B5084A084B1A600C22084B1A600120FFF7F0FF0648FFF7C5FF0020FFF7BAFF10BDC04600060002C0012040E401204079
:4010400060EA000010B5064B1B78002B04D1FFF7DFFF0122024B1A70FFF7C2FF10BDC046CC010020014B18607047C046F001204010B50B20FFF7C6FD10BDC04610B500F035
:40108000FFF810BD10B500F085F810BD10B5054A1368802109060B431360FFF7E9FFFFF7EDFF10BD0000274010B5064B1B78002B04D1FFF7E7FF0122024B1A70FFF7E6FF1F
:4010C00010BDC046D0010020094B1A68094B1B689A420BD0074B1B680133212B00D10023054AD05CC0B2034A136000E0002070472C0200200802002034020020074B1B6878
:40110000074A1268934203D3054A1068181A04E0034A10681B1A2133180070472C02002008020020144B1A68144B1B689A4208D1134B1B681F221340082B02D0114B186001
:4011400019E00D4B1A680132202A00D100220B4B1B689A42FBD002230B490B60C0B20B49885405490A600A4A1268134203D1084A11680B43136070473002002004020020BC
:401180000802274040022740800F27400C020020880F274070B5204A204B1A600024204B1C6001231F4A13601F49204A116007211F4A11601F4A14601F4A13601F4A204BA2
:4011C0001A60204B1C6004251F4B1D600B20FFF723FD03210B20FFF73DFD1C490B20FFF727FD1B4B1C601B4B1C601B4B1C601B4B1C601B4B1D601B4B1C601A681A4B1A8046
:401200001A4B1C601A4B1C601A4B1C701A4B1C601A4B1C6070BDC0460F0000020000274040002740480027400702008000032740040327401003274044002740070000802B
:40124000000227400402274050002740A5140000880E2740C80E2740480F2740080F2740C80F2740880F2740D80100202C0200200802002055020020300200200402002016
:4012800005490B68F0229343603A13430B60034B1A88034B1A60704700070240D8010020880F274010B50B20FFF7B6FCFFF726FF002806D00B20FFF7A5FCFFF705FF04000A
:4012C00007E0094B1C680422084B1A600B20FFF799FC064B1868D82292001A600002D8239B021840204310BD40032740C00F27400004000C014B18607047C0468801204033
:401300000004000C014B18607047C0469401204070B504000D0000F094F8AC40024B1C6000F093F870BDC0460800204010B500F088F8064A116804230B43136000F085F857
:4013400018210420FFF7E4FF10BDC04600002040014B18607047C046B801204010B580229204074B1A600C22064B1A600120FFF7EFFF6420FFF7C4FF0020FFF7B9FF10BDCB
:4013800080012040A401204010B5064B1B78002B04D1FFF7E3FF0122024B1A70FFF7C6FF10BDC046DA010020014B18607047C046B00120409423014AD050704700000020B8
:4013C00010B5040000F03DF8044A1168044B0B40A4031C43146000F038F810BD14E400E0FF3FFFFF80229203014B1A607047C04600E100E080229203014B1A607047C046EE
:4014000080E100E010B50400FFF7F4FF2000FFF7D1FF0320FFF7D4FFFFF7E4FF10BDC04680229203014B1A607047C04680E200E00230800803D00138FDD1C046C046C04699
:401440007047EFF3108072B6704780F31088704770B50400FFF7F5FF0500102C05D8104A136803218B43136016E0202C07D80C490B6803229343023A13430B600CE0302C0E
:4014800007D807490B6803229343013A13430B6002E00020FFF7CAFB2800FFF7D6FF70BD3000104010B5274B1B68002B00D09847254B1B685B071DD5244B1B680133212BE9
:4014C00000D10023224A1268934205D1214B1B682022214B1A7006E01E4A1268D2B21F49CA541A4A13601E4B1B68DB06E4D104221C4B1A601C4B1B689B0721D51B4B1A68A4
:401500001B4B1B689A4213D0194B1B680133202B00D10023174AD25CD2B217490A60144A1360164B1B681F221340082BE6D104E0134A136802218B4313600222114B1A607F
:4015400010BDC046D4010020CC0F27402C0200200802002040032740550200203402002008032740C00F27408C0F274030020020040200200C020020400227400802274008
:40158000880F2740800F27408446081C6146FFE71FB500F015FA002801D40021C8421FBD10B500F0A1F94042013010BD10B500F007FA002801DB002010BD012010BDC0467B
:4015C00010B500F0FDF9002801DD002010BD012010BDC04610B500F0AFF9002801DC002010BD012010BDC04610B500F0A5F9002801DA002010BD012010BDC046F8B54A02E6
:40160000430244004E00C50F240E28009B09360EC90F92098D4259D0A01B002800DC8DE0002E1AD1002A00D079E05A0704D00F221A40042A00D004335A0138D50134FF2CFD
:4016400000D189E028009B015B0AE4B25B02E4055B0A2343C0071843F8BDFF2CE5D08021C9040A431B2800DD89E016002021C640081A8240511E8A4132439B1A5A0114D57C
:401680009B019E09300000F0E3FC05388640844265DC041B330020200134E340041BA640721E964100243343BFE75A07BFD1DF082800FF2C2FD1002F00D187E08022D2033F
:4016C00013003B435B025B0AFF24BFE7A11B002949DD002E29D0FF2CA7D08026F60432431B2900DD8DE017002026CF40711A8A40511E8A413A439B185A01D6D50134FF2CC6
:4017000064D0012276491A405B080B4013438CE7031ECAD100207B025B0AE4B296E701380028AAD0FF2C9DD17FE7002A00D17CE701390029DFD0FF2CD2D176E7002820D163
:40174000601CC0B2012853DD80279E1AFF0437402FD0D61A0D0095E72800002376E7614B241A334061E700294DD1611CCEB2012E2FDDFF292AD09B185B080C0055E7012262
:401780007BE7002C1BD1002B5BD0C04300280CD0FF2E7ED01B2800DD92E01D002024C540201A8340581E83412B43D31A34000D0064E7002E00D065E700200024ABE7FF2E74
:4017C00067D08024E40440422343E3E7FF2400233CE7002C61D1002B7ED0002A00D124E79B185A0100D460E73E4A0C0013401CE7002C1ED1002B2FD1002A66D013000D0055
:4018000013E7012277E7002C1FD1002B5AD0C94300290BD0FF2E50D01B295FDC1F002024CF40611A8B40591E8B413B439B18340062E7002B1CD1002A4AD013000D00FF2498
:40184000F3E6130034000D00EFE6FF2E35D08024E40449422343DFE7002A00D1E5E68027981AFF04074000D152E7D31A0D00DCE6FF24002A00D1D8E68020DB08C00303425B
:4018800004D0D208024201D113000D00DB00FF24CBE61300FF240D00C7E6002B0DD0FF24002A00D1C1E68021DB08C9030B42EDD0D2080A42EAD11300E8E71300FF24B4E6EB
:4018C000012372E713003400AFE60027002022E780270020FF03F1E61300A6E60123A5E7FFFFFF7DFFFFFFFB430270B542004C005D0AC30F4802120E460A240EC90FFF2AC0
:401900000FD0FF2C11D00120A24200D070BDB542FCD18B420DD0002AF8D12800431E9841F4E70120002DF1D1EBE70120002EEDD1E9E70020EAE7C0464302F0B542005D0AD3
:40194000C30F4802440A4800120E000EC90FFF2A1FD0FF2822D0002A09D16E426E4100280FD1002C0DD10020002D09D005E0002801D1002C01D08B4213D05842012318433E
:40198000F0BD002EF7D048424141012049420843F6E7002DDDD002204042F1E7002CDAD0F9E78242E9DC04DBA542E6D80020A542E6D25842434101205B421843E0E7C046C9
:4019C0004302F0B542004C005E0AC30F4802120E450A240EC90FFF2A17D0FF2C19D0002A0BD170427041002C17D0002807D048424141012049420843F0BD002C13D08B4247
:401A000014D0584201231843F6E70220002EF3D1E3E70220002DEFD1E1E7002DE5D10020002EE9D0EDE7002DE9D1EAE7A242E8DC04DBAE42E5D80020AE42DDD25842434190
:401A400001205B421843D7E7F0B557464E4645464300E0B446028846760A1F0EC40F002F47D0FF2F25D0002380259A469946F600ED042E437F3F434642465D02D20F5B000F
:401A80006D0A1B0E904640D0FF2B39D080220020ED00D20415437F3BFB1842465746591C62408C4607430F2F5CD86F49BF00C9598F46002E45D108239A46063B9946DAE75B
:401AC000424602282DD0032800D1C3E0012800D0A2E0002500260240D4B27602ED05760A2E43E407264330001CBC90469946A246F0BD002E1AD104239A46033B9946BAE72B
:401B00002A00511E8A41901CC6E70120002DC3D0280000F09DFA431F76309D4043420020BAE70124FF2514400026D6E7300000F08FFA431F9E400023763047429A469946B3
:401B400099E70C239A46093B994694E780260024F603FF25C1E735004846B2E7350022004846AEE72904090C0800370C3604360C2C0C7943704367437443060C64183619E5
:401B8000B14203D980214902884647440004000C310409188D01681E8541890E2943350CED19AD010D43290104D5012369081D4063460D4319007F31002925DD680704D064
:401BC0000F202840042800D00435280103D5274980330D401900FE29A3DC0124AD016E0A1440CDB279E78020C003064207D0054205D128434602760A4446FF256DE706434E
:401C00007602760AFF2568E70124611A1B2905DD14400025002660E76346CBE72E002023CE40591A8D406B1E9D412E43730704D00F233340042B00D00436730104D50124FD
:401C400001251440002648E70124B601760A1440002542E780260124F6032E437602760A1440FF2539E7C0464C220000FFFFFFF7F8B54A024E0043024400240EC50F9B09F0
:401C8000360EC90F9209FF2E00D183E001204140A01BA9425CD0002800DC95E0002E1CD1002A00D081E05A0704D00F221A40042A00D004335A013BD50134FF2C00D191E0A7
:401CC00001209B015B0AE4B205405B02E4055B0AED0723432B431800F8BDFF2CE3D08021C9040A431B2800DD90E016002021C640081A8240511E8A4132439B1A5A0115D594
:401D00009B019E09300000F0A3F90538864084426CDC041B330020200134E340041BA640721E964100243343BDE70D005A07BCD1DF0801231D40FF2C33D1002F00D190E0FD
:401D40008022D20313003B435B025B0AFF24BCE700284FDD002E2ED0FF2CA4D08025ED042A431B2800DD97E016002025C640281A8240501E824132439B185A01D5D5013422
:401D8000FF2C6DD001227B481A405B08034013430D0088E7002A00D07AE777E7031EC5D100257B025B0AE4B28FE701380028A4D0FF2C97D177E7002A00D174E70138002803
:401DC000DAD0FF2CCDD16EE7002821D1601CC0B2012858DD80279E1AFF0437402FD0D61A0D008FE701231D4000236EE7624B241A334058E7002851D1601CC6B2012E33DD57
:401E0000FF282DD09B185B0804004CE7012274E7002C1AD0FF2E1FD08024E404404223431B2800DD96E01D002024C540201A8340581E83412B43D31A34000D005EE7002ECB
:401E400000D05FE700250024ABE7002B44D0C0430028F0D0FF2EE3D11300FF240D0022E70D00FF24002330E7002C5DD1002B7DD0002A00D117E79B185A0100D456E73E4A3E
:401E8000040013400FE7002C1ED1002B2FD1002A65D013000D0006E701226DE7002C1FD1002B59D0C04300280BD0FF2E4FD01B285EDC1D002024C540201A8340581E8341D0
:401EC0002B439B18340058E7002B1CD1002A49D013000D00FF24E6E6130034000D00E2E6FF2E34D08024E40440422343DFE7002A00D1D8E68027981AFF04074000D14DE7FC
:401F0000D31A0D00CFE6FF24002A00D1CBE68020DB08C003034204D0D208024201D113000D00DB00FF24BEE6002B10D0FF24002A00D1B8E68020DB08C003034203D0D20813
:401F4000024200D11300DB000D00FF24ABE61300FF24A8E601236EE713003400A3E6002700251EE780270025FF03E9E613009AE60123A6E7FFFFFF7DFFFFFFFB4302590A44
:401F80004300C20F1B0E00207E2B0EDD9D2B0DDC802000040143952B0BDC9620C31AD9400B005842002A00D118007047034BD018FBE7963B99400B00F3E7C046FFFFFF7FAC
:401FC00070B5002830D0C317C5185D40C40F280000F03EF89E231B1A962B0DDC9622D21A95406A02520AD8B25202C005520AE40702432243100070BD992B19DC9922D21A0D
:402000009540124A2A40690704D00F210D40042D00D00432510103D50C4B1A409F231B1A9201520AD8B2DFE7002400200022DBE705222E00121AB921D6402A00C91A8A408C
:40204000551EAA4135001543DBE7C046FFFFFFFB1C2101231B04984201D3000C10391B0A984201D3000A08391B09984201D30009043902A2105C40187047C04604030202CC
:40208000010101010000000000000000014B18687047C046400100200E4B70B500251E000D4CE41AA410A54204D0AB00F35898470135F8E700F0ECF8084B00251E00084C03
:4020C000E41AA410A54204D0AB00F35898470135F8E770BD9C2200009C2200009C220000A422000003008218934202D019700133FAE77047000000000306100005000000A5
:4021000000300F40000400400F40000422312331060210081204140116021E0124042608340C36033E1040214620480849FF4AFF4BFF58045A045B045F01608062406340B3
:4021400064406540668068806A806C806E8086018A02AC01AE02B403C062C720C820C9FFCAFFCBFFD804DA04DF01E080E240E340E440E540E680E880EA80EC80EE80000473
:40218000012007200D800E800F201002142018041D801F204004458047204920500257106E8081208420864087208B208C048D80C026C2B0C421D034D204E292E6094F20EC
:4021C0005304581084108B048F10D220D4A0E640034007801B017308834087818F08C00CC608DC04E40201011001000002000F4037320F4020330F4009410F400B430F40BB
:4022000002600F40030405060708090A0B0C0E0F101112131415161718191B1C1D1E1F2021222325262728292A2B2E2F3031323334350000EEDBC9B9AA9B8E82766B6056C6
:402240004D443B332C241D17100A0400641B0000C21A0000C21A0000C01A0000561B0000561B00004C1B0000C01A0000561B00004C1B0000561B0000C01A00005C1B0000EF
:402280005C1B00005C1B0000E61B000043000000F8B5C046F8BC08BC9E46704715020000F5080000F8B5C046F8BC08BC9E467047ED010000C8220000C0000020880000000C
:4022C000100100000000000000000000010000000000C05D80BB000030000000006CDC02F000000004040400000000000000000000000000000000000000000000000000FE
:4023000000000000000000008C22000000000000000000000000000000000000000000000000000000000000000000000000000000000000000000000000000000000000EF
:402340000000000000000000E0000020000000000000000000000000000000000000000000000000000000000000000000000000000000000000000000000000000000005D
:40238000000000000000000000000000000000000000000000000000000000000000000000000000000000000000000000000000000000000000000000000000000000001D
:4023C00000000000000000000000000000000000000000000000000000000000000000000000000000000000000000000000000000000000000000000000000000000000DD
:40240000000000000000000000000000000000000000000000000000000000000000000000000000000000000000000000000000000000000000000000000000000000009C
:40244000000000000000000000000000000000000000000000000000000000000000000000000000000000000000000000000000000000000000000000000000000000005C
:020000040001F9
:0200000490303A
:02000000A0FF5F
:0200000490402A
:4000000000000000000000000000000000000000000000000000000000000000000000000000000000000000000000000000000000000000000000000000000000000000C0
:400040000000000000000000000000000000000000000000000000000000000000000000000000000000000000000000000000000000000000000000000000000000000080
:0200000490501A
:0C0000000002112D11A100011138B2A066
:0200000490600A
:0100000001FE
:00000001FF