:400000000040002011000000810600008106000010B500F055FB000070B572B68024E400220000213F4801F097FD220000213E4801F092FD3D4A3E4B06211A603D4A3E4B0E
:4000400003251A6099223D4B30201A6099233C4A1B0413603B4A002413603B4A13780B431370C022394B52031A60394B394A1D60394B3A491A600523394A1360394A1160B4
:40008000394A312113602022384B1A608022384B52021A600223374A1360374A1160374A13601222364B1A6000F098FC354A364B36491A60BC22364B92011A60354B364AAF
:4000C00007201A60D02252020A603449196034490A60344A34491A60344A1460344A1A608022344B12061A608022334BD2021A604122324B1A60324B01321A60314B01321F
:400100001A60314B033A1A6000F0B2FB072000F0D1FB2E4B1C602E4B1D602E4B1D602E4B1C6070BD00300F4000400F4099EE000000030240FF0F0000000402400007024018
:4001400010500F4030500F4000700F400801044000030440B20D0000080304408EED0000000404400804044018040440000604400806044000070440080704401807044090
:40018000300010400600008004010B4008030140040301400000014041FF008042FF00800C03014043FF00801D0B00000003014040FF008008010B4000010B402C01014048
:4001C000140101400C010140080101400C020B403000304030003140000E3F4010B5064C2378002B07D1054B002B02D0044800E000BF0123237010BD500100200000000008
:40020000501C0000084B10B5002B03D00749084800E000BF07480368002B00D110BD064B002BFBD09847F9E70000000054010020501C0000C00000200000000010B501F0FD
:40024000DBF801F045F9002001F006FA502001F0FDF8732001F0FAF801F0C0F80228FBD1013801F0F9F910BD10B501F0C5F801F02FF9002001F0F0F9602001F0E7F8FF2022
:4002800001F0E4F801F0AAF80228FBD101F08EF801F08CF80400012001F0DEF9E0B210BD10B500F06DF900F099FC00F0A9FD00F056FF00F013FFFFF7C1FF00F0CBFE78202C
:4002C00000F0D4FE01F0E8F90D4C002806D10521200000F0F3FE611D052205E00521601D00F0ECFE052221000A2000F0CDFE00F0FBFE00F04CFF00F04EFF00F089F910BD17
:40030000541C00000C4B70B51C685D6800F08EFC0A4A002801D110600DE016680023B04203D00A3411C2180005E0180053689C4201D31060012070BD900100206C0100206E
:400340000D4B70B51C685D6800F082FD0B4A002801D190600EE096680023B04204D00A349060D460180005E01800D3689C4201D39060012070BDC046900100206C0100204E
:4003800070B501F091F9041E09D01C4B1C685D6800F062F91A4A002820D110612DE000F0B8FE0028F1D001F06FF9C043C0B201F05FF9FFF759FF134E01000500300000F031
:4003C000AEFE00F0C6FE00F0E2FE013523000134AC42DAD0F05C00F02BF9F7E716690023B04204D00A3410615461180005E0180053699C4201D31061012070BD90010020AA
:400400006C01002010020020F8B562B6FFF748FF0127FFF7B5FF4E4C002800D02776FFF771FF002800D06776FFF78AFF002800D0A776237E002B1CD00025257600F00CF9BE
:40044000E076E37E434EAB4205D900F0F9F870550135ADB2F5E700F00BF901F01DF9E17E002803D1300000F027FC02E0300000F035FD637E002B33D00023637600F039FE53
:4004800000F0EEFD032000F029FA00F0CFFB207700F081FE00F0CAFB00281DD000F0C6FB20251F2802D800F0C1FB85B20026AE4205D200F0A1FB284B98550136F7E7290090
:4004C000254800F03CFE01F0EFF80028FBD100F062FE00F03EFEDDE700F0BCFD00F004FEA37E002B95D00023A37600F002FE00F0B7FD032000F0F2F900F0AAFC607700F0E2
:400500004AFE00F0A5FC00281DD000F0A1FC20241F2802D800F09CFC84B200250E4EA54204D200F07BFC70550135F7E72100300000F005FE01F0B8F80028FBD100F02BFEAD
:4005400000F007FEDDE700F085FD00F0CDFD60E76C01002010020020F001002001220023064970B50C684D6812196B4101200A604B6000F039F900F061F970BD9001002045
:4005800010B5034800F046F900F020F910BDC0465D05000070B5041E13D040682268E668430099520130310001F09AFAA36861600025994207D1481C310001F091FAA16049
:4005C00001E001256D42280070BD10B5041E10D000290ED08068636898420AD0226843009B5A01300B80E16801F07AFA0020A16001E00120404210BD84B0914201D39A1890
:4006000000E0013A521A92B29A1A90B204B07047802310B5054C5B008020E360002380006360A36001F08EFA206010BD1003002010B501000148FFF7ADFF10BD1003002084
:4006400013B56B469C1D21000248FFF7BEFF208816BDC0461003002010B5044B186859689A68DB68FFF7C8FF10BDC046100300200022024B5A609A607047C0461003002006
:4006800010B501F033FA03680C2B00D1FEE7FEE7030010B580240849084A08682401C3189A1AA24201DC0B6005E001F01FFA0C2303600120404210BDC4000020E8070020D7
:4006C000F8B500250F49104B01394A1C14D000221F685C689E68A018B24203D0B858A0500432F8E70200DE68141AA64201D020C2FAE710330139E8E701F0FEF9FFF784FE4C
:40070000FEE7C04601000000CC1C000001210D4A70B5136814008B43136000230A4D0B4E0B489A002900032B00D8B15801338150302BF6D1FFF770FC01222368134323606F
:4007400070BDC046000010408106000000000000000000208022084B92041A600C22074B1A60074B0B3A1A60FA22064B92001A600022054B1A60704700012040240120403D
:4007800038012040140120400801204070B50D000400AC4000F099FF024B1C6000F099FF70BDC0460800204010B5012400F08DFF054A13682343136000F08BFF1821200050
:4007C000FFF7E4FF10BDC0460000204010B5054C2378002B03D1FFF7BDFF01232370FFF7E3FF10BD98010020014B18607047C0463001204010B5040000F067FF044AA4074C
:4008000013689B009B081C43146000F062FF10BD10E400E010B58024054B24031C60054B8C3318600320FFF7E5FF034B1C6010BD80E100E00000002000E100E08022024BB2
:4008400012031A607047C04680E200E0024A034B11680B401360704700002240FFFFFFBF024B18684000C00F7047C04600002240024B8000C3181868196070474000002091
:40088000F8B5032605003540B5400F0004000635AE40AF4000F019FFA408054BA400E4182368B3431F43276000F013FFF8BDC04600E400E01F2318401E3B8340014A1360C5
:4008C0007047C04600E100E01F2318401E3B8340014A13607047C04680E100E070B5802504002D02064BAC4205D9586800F0E4FE044BE418F6E79868604300F0DDFE70BD99
:40090000C80000200080FFFFF7B500F0B1F800284FD000F0DAFE3F2700220400254E26483168135C39400500994201D1033203E001322E2AF4D12B3A1F2020490B68034230
:4009400004D10B688343133803430B6080261C491C4B0868F60118401B4B53439B19DB0B013B0343192A01D818480CE018481018AA180678107DA022801952031343FF283A
:4009800000D9FF2080050343124D0B602B683020019300F0A1FE80210F4AC905136814200B431360FFF79AFF019B20002B6000F090FEF7BD2CFF0B405E1C000034FF0B40F6
:4009C0000800224000F800C040420F000000D43FCDF1FF0F300010400000224030B587B0040000F072FE0500FFF73AFF0022904202D0FFF72BFF0122104B1148196802ABE4
:400A000002911049096803910F490C19033C217804910E49096805910D490091694601930C4B19600C4908601B68012A01D1FFF76BFF280000F04DFE07B030BD08010B408B
:400A40001700008000010B405E1C000030001040B6EA0000080010400400104010B5034B1B7B584300F028FE10BDC046C8000020014B1868C00F70470000224010B500F0CF
:400A800024FEC021034A090213680B43136000F020FE10BD00010B4010B5802400F015FE0749084B0A68E4011A4022430A600A6813408022120213430B6000F00AFE10BDE8
:400AC00000010B40FF3FFFFF70B5050000F0FDFD0E4B04001A68C0231B02134011D10C480C49054028000E680B4A3240104308600A68012B01D1FFF7C1FF200000F0E9FD1C
:400B000070BDFFF7C9FF0123E9E7C04600010B400404040010020B40FBFBFBFF042270B5224C2368134213D021494B6813420CD0204B5D6A48681540A8434860596A914300
:400B400059629B69002B00D098470420FFF7BCFF80232268DB001A4215D015494A681A420DD0144A556A48682B4098434860516A114B0B405362D369002B00D098478020ED
:400B8000C000FFF7A1FF80232268DB021A420CD0074A52681A4204D0064B1B6A002B00D098478020C002FFF78FFF70BD10020B40DC0000209C010020FFFBFFFF8021064AA0
:400BC00010B5136809060B4313600B20FFF772FE00F0F4F810BDC0460000274010B5054C2378002B03D100F073F801232370FFF7E5FF10BDC4010020094B0A4A196813684C
:400C0000002099420AD002211368FF3101338B4200D103000449C85C1360C0B27047C046280400202403002030040020054B1868054B1A681B68904201D20230FF30C01A3D
:400C40007047C0462804002024030020134A144B30B51D68116814008D4208D1114A11681F220A40082A02D00F4B186015E019684A1CFF2900D1002221688A42FCD0022159
:400C80000A4CC0B221600A4CA0541A60094B1A680A4202D11A680A431A6030BD200300202C0400200802274040022740800F274028030020880F274070B504004518AC429C
:400CC00004D02078FFF7C2FF0134F8E770BD000070B50024072104251E4A1F4B0B201A601E4B1F4A1C601F4B1A601F4B1F4A13601F4A11601F4A063914601F4A11601F4ACE
:400D000013601F4B1C601F4B1D60FFF7DDFD03210B20FFF7B5FD1C490B20FFF7A9FD1B4B1C601B4B1C601B4B1C601B4B1C601B4B1D601B4B1C601A681A4B1A801A4B1C60D1
:400D40001A4B1C601A4B1C701A4B1C601A4B1C6070BDC0460B000002000027404000274001000A0048002740070000800003274004032740100327404400274000022740EA
:400D800004022740500027401D170000880E2740C80E2740480F2740080F2740C80F2740880F2740CC0100202804002024030020310500202C04002020030020F021054A60
:400DC00013688B4360390B431360034B1A88034B1A60704700070240CC010020880F27408021064A10B5136809060B4313600920FFF760FD00F0F4F810BDC046000025401C
:400E000010B5054C2378002B03D100F073F801232370FFF7E5FF10BDD0010020094B0A4A19681368002099420AD002211368FF3101338B4200D103000449C85C1360C0B2E6
:400E40007047C046440700203C05002040060020054B1868054B1A681B68904201D20230FF30C01A7047C046440700203C050020134A144B30B51D68116814008D4208D19A
:400E8000114A11681F220A40082A02D00F4B186015E019684A1CFF2900D1002221688A42FCD002210A4CC0B221600A4CA0541A60094B1A680A4202D11A680A431A6030BD8A
:400EC00034050020380500200802254040022540800F254040050020880F254070B504004518AC4204D02078FFF7C2FF0134F8E770BD000070B50024072104251E4A1F4B8D
:400F000009201A601E4B1F4A1C601F4B1A601F4B1F4A13601F4A11601F4A063914601F4A11601F4A13601F4B1C601F4B1D60FFF7CBFC03210920FFF7A3FC1C490920FFF7FA
:400F400097FC1B4B1C601B4B1C601B4B1C601B4B1C601B4B1D601B4B1C601A681A4B1A801A4B1C601A4B1C601A4B1C701A4B1C601A4B1C6070BDC0460B00000200002540F6
:400F80004000254001000A0048002540070000800003254004032540100325404400254000022540040225405000254001180000880E2540C80E2540480F2540080F25404A
:400FC000C80F2540880F2540D8010020440700203C050020410700203805002034050020024B1A88024B1A607047C046D8010020880F254010B53F21012000F0ECF8012132
:40100000022000F0E8F80321080000F0E4F80021042000F0E0F87821052000F0DCF80621080000F0D8F83F211C2000F0D4F805211D2000F0D0F82021112000F0CCF81B2173
:40104000002000F0C8F80522014B1A7010BDC046E4000020002110B5080000F004F910BD002110B5080000F0EBF810BD10B5011C7D2800D97D21C9B2052000F0ACF800F074
:4010800018F900F01BF910BD10B503001400002911D00A3805280ED800F092FC030309090909054A1278A24202D9220000E00122180000F0A9F810BDE400002010B5002847
:4010C00008D0054B1A788A4200D90A000100102000F09AF810BDC046E400002010B502211D2000F0C0F810BD10B5012000F0A8FA10BD10B5002000F0A3FA10BD10B50120F9
:4011000000F09EFA0F20FFF7A9FC002000F098FA10BD10B500F017F94006C00F10BD70B504000D00002809D0002000F089FA2000290000F0C8F8012000F082FA70BD10B505
:40114000002805D0202903D800F0E3F8FFF7D6FF10BD10B57021072000F03DF810BD10B56420FFF7BBFB00F013F9002000F068FA012000F071FA00F09CF800F09FF8FFF79C
:40118000E8FFFFF737FF9620FFF768FC10BD10B500F08FF810BD10B500F090F810BD10B5040000F029F900F093F9002000F054FA200000F04BF9FF2000F048F900F00EF9DC
:4011C0000228FBD1013800F047FA00F0EFF800F0EDF8C0B210BD70B50D00040000F00CF900F076F9002000F037FA2020204300F02DF9280000F02AF900F0F0F80228FBD117
:40120000013800F029FA70BD70B50E001500040000F0F2F800F05CF9002000F01DFA2020204300F013F92900300000F045F900F0D5F86B1C9842FAD1012000F00DFA70BD4F
:4012400070B504000D0008290CD8FFF7A8FF020001232A411A4205D0AB409843C1B22000FFF7B9FF70BD70B504000D0008290CD8FFF795FF030001212B410B4205D1A9401E
:401280000843C1B22000FFF7A6FF70BD10B5040000F0B2F800F01CF9002000F0DDF9200000F0D4F800F09AF80128FBD100F0D4F910BD10B5E220FFF7E9FF10BD10B5E12025
:4012C000FFF7E4FF10BD70B504000D0000F094F800F0FEF8002000F0BFF9612000F0B6F800F07CF80028FBD000F060F86519AC420BD0FF2000F0AAF800F070F80028FBD0E7
:4013000000F054F820700134F1E7012000F0A4F970BD70B50C00050000F06EF800F0D8F8002000F099F9B02000F090F82100280000F0C2F800F052F8631C9842FAD1012051
:4013400000F08AF970BD10B500F056F800F0C0F8002000F081F9FF2000F078F800F03EF80128FBD100F078F900F020F8C0B210BD8021064A10B5136809060B43136008202D
:40138000FFF798FA00F0D0F810BDC0460000244010B5054C2378002B03D100F0E7F801232370FFF7E5FF10BDDC010020084B094A196813680020994208D013680133412B4C
:4013C00000D103000449C85C1360C0B27047C0464C070020DC07002094070020044B1868044B1A681B68904200D24130C01A70474C070020DC07002010B50820FFF764FA55
:401400000B4B80211A680B4B49021A6000220A4B08201A70094B1A680A431A601968084A0A401A60074A084B1A60FFF743FA10BDDC0700204C07002048070020040324404D
:40144000FFFFFEFFED0F0000C00F2440134B144A30B515681C681900A54208D1114B1C681F232340082B02D00F4B186015E013680133402B00D100230C68A342FCD0022120
:401480000A4CC0B221600A4CE0541360094B1A680A4202D11A680A431A6030BDD8070020500700200802244040022440800F244054070020880F244070B504004518AC4254
:4014C00004D02078FFF7C2FF0134F8E770BD000010B50820FFF7F8F902210C4B08201A680B4B1A600B4A13688B43802113600A4B49021A680A431A601968084A0A401A608E
:40150000074A084B1A60FFF7D5F910BDD807002050070020880F244004022440FFFFFEFFF3070000800F2440F021054A090113680B431360034B1A88034B1A607047C0461E
:4015400000040240E4010020880F24400549064B0A6880061340C02212051040184308607047C04620002440FFFFFFF31D4A1E4B10B51A601D4A1E4B00241A601D4A1E4BB1
:4015800008201A6007221D4B1A601D4A1D4B1A601D4B1C60FFF798F903210820FFF770F91A490820FFF764F90422194B20001C60184B1C60184B1C60184B1C60184B1A60A1
:4015C000184B1C601A68184B1A80FFF7BFFF174B1C60174B1C60174B1C70174B1C60174B1C6010BD0F000001000024400100008020002440070300800003244004032440D1
:40160000070100800002244004022440E5180000880E2440C80E2440480F2440080F2440C80F2440880F2440E40100204C070020DC0700204807002050070020D807002055
:401640001023044900010A689A43D2B2034013430B6070470004044008230449C0000A689A43D2B2034013430B607047000404404023044980010A689A43D2B20340134368
:401680000B60704700010440024B18684006C00F7047C04604010440024B18688006C00F7047C04604060440024B18688006C00F7047C046040404400230800803D00138BD
:4016C000FDD1C046C046C0467047EFF3108072B6704780F31088704710B50400FFF7F5FF102C04D803210C4A13688B430FE0202C05D80321084A13688B43023906E0302C5E
:4017000006D80321044A13688B4301390B431360FFF7DFFF10BDC04630001040274B70B51B68002B00D09847254B1B685B071ED5022420251F202349FF340B680133A342DD
:4017400000D10023204A1668204AB34203D113681F4B1D7004E012681E4ED2B2F2540B601D4B1B680342E8D104221C4B1A601C4B1B689B0721D580251F201A4C1A4A6D005C
:4017800021681368994210D013680133AB4200D100231649164EC95CC9B231601360154B1B680340082BEBD104E00221124A13688B4313600222114B1A6070BDC80100202F
:4017C000CC0F2740280400202403002040032740310500203004002008032740C00F27408C0F27402C04002020030020280300204002274008022740880F2740800F27402A
:40180000274B70B51B68002B00D09847254B1B685B071ED5022420251F202349FF340B680133A34200D10023204A1668204AB34203D113681F4B1D7004E012681E4ED2B2C8
:40184000F2540B601D4B1B680342E8D104221C4B1A601C4B1B689B0721D580251F201A4C1A4A6D0021681368994210D013680133AB4200D100231649164EC95CC9B23160E7
:401880001360154B1B680340082BEBD104E00221124A13688B4313600222114B1A6070BDD4010020CC0F2540440700203C0500204003254041070020400600200803254073
:4018C000C00F25408C0F25403805002034050020400500204002254008022540880F2540800F2540254B70B51B68002B00D09847234B1B685B071CD520241F2021490B68FD
:401900000133412B00D100231F4A15681F4AAB4203D113681E4B1C7004E012681D4DD2B2EA540B601C4B1B680342E8D104221B4B1A601B4B1B689B071FD51F20194C1A4A29
:4019400021681368994210D013680133402B00D100231649164DC95CC9B229601360154B1B680340082BEBD104E00221124A13688B4313600222114B1A6070BDE0010020E0
:40198000CC0F24404C070020DC07002040032440480700209407002008032440C00F24408C0F244050070020D8070020540700204002244008022440880F2440800F24400D
:4019C00002B4714649084900095C49008E4402BC7047C046002243088B4274D303098B425FD3030A8B4244D3030B8B4228D3030C8B420DD3FF22090212BA030C8B4202D32D
:401A00001212090265D0030B8B4219D300E0090AC30B8B4201D3CB03C01A5241830B8B4201D38B03C01A5241430B8B4201D34B03C01A5241030B8B4201D30B03C01A5241E0
:401A4000C30A8B4201D3CB02C01A5241830A8B4201D38B02C01A5241430A8B4201D34B02C01A5241030A8B4201D30B02C01A5241CDD2C3098B4201D3CB01C01A52418309F5
:401A80008B4201D38B01C01A524143098B4201D34B01C01A524103098B4201D30B01C01A5241C3088B4201D3CB00C01A524183088B4201D38B00C01A524143088B4201D30C
:401AC0004B00C01A5241411A00D20146524110467047FFE701B5002000F006F802BDC0460029F7D076E770477047C046014B18687047C046480100200E4B70B500251E0037
:401B00000D4CE41AA410A54204D0AB00F35898470135F8E700F0C8F8084B00251E00084CE41AA410A54204D0AB00F35898470135F8E770BDB41C0000B41C0000B41C000067
:401B4000BC1C000010B5034B0100186800F00CF810BDC0464801002003008218934202D019700133FAE77047032370B5CD1C9D43083506000C2D01D20C2501E0002D01DBB2
:401B8000A94202D90C23336048E0300000F05EF8234B1C681A002100002913D00B685B1B0DD40B2B02D90B60CC181EE08C4202D1636813601AE04B6863600C0016E00C0041
:401BC0004968E9E7174C2368002B03D1300000F02BF820602900300000F026F8431C18D00323C41C9C43A0420DD12560300000F02EF8200007220B30231D9043C31A0ED044
:401C00005A42E2500BE0211A300000F00DF8431CEBD10C233000336000F019F8002070BDEC010020E8010020002370B5064C050008002360FEF72CFD431C03D12368002BE9
:401C400000D02B6070BDC046E007002070477047000000003A294D32533A2953324D030405060708090A0B0C0E0F101112131415161718191B1C1D1E1F2021222325262739
:401C800028292A2B2E2F303132333435EEDBC9B9AA9B8E82766B60564D443B332C241D17100A044300000000F8B5C046F8BC08BC9E467047050200000D070000F8B5C04643
:401CC000F8BC08BC9E467047DD010000E01C0000C000002090000000980600000000000000000000E8070020010000000000C05D80BB000030000000006CDC02F000000017
:401D000004040400050000000000000000000000000000000000000000000000000000000000000000000000A31C00000000000000000000000000000000000000000000D3
:401D400000000000000000000000000000000000000000000000000000000000000000000000000000000000E800002000000000000000000000000000000000000000005B
:401D80000000000000000000000000000000000000000000000000000000000000000000000000000000000000000000000000000000000000000000000000000000000023
:401DC00000000000000000000000000000000000000000000000000000000000000000000000000000000000000000000000000000000000000000000000000000000000E3
:401E000000000000000000000000000000000000000000000000000000000000000000000000000000000000000000000000000000000000000000000000000000000000A2
:401E40000000000000000000000000000000000000000000000000000000000000000000000000000000000000000000000000000000000000000000000000000000000062
:020000040001F9
:0200000490303A
:02000000630596
:0200000490402A
:4000000000000000000000000000000000000000000000000000000000000000000000000000000000000000000000000000000000000000000000000000000000000000C0
:400040000000000000000000000000000000000000000000000000000000000000000000000000000000000000000000000000000000000000000000000000000000000080
:0200000490501A
:0C0000000002112D11A10001113674A6A0
:0200000490600A
:0100000001FE
:00000001FF