:400000000040002011000000991600009916000010B501F049FBC046F0B5474680B472B680220021D2007E4804F088FE80220021D2007C4804F082FE00237B4F98463E00B8
:40004000FF3300259C461436634678597A5D9843002A12D0013A4146D2B2434690460131884442465B005400F31834191A7859781218023311709C42F8D10435142DE3D17B
:40008000C0226A4B92051A603322694BA8211A60EE22684B12021A60674A684B49051A609922674B30201A609923664A1B041360654A1160C021654AC9021360644A11608D
:4000C000644A65491360654A1360654A654B1A603C220B789343283A13430B701623624A11780B4313708022604B61491A60C022604B12041A6003235F4A13605F4A116023
:400100005F4A312113605F4A13605F4A13605F4A5F4B1A600D225F4B1A605F4A5F4B1A6080225F4B12011A6005225E4B1A605E4B1B321A6080225D4B52021A6002235C4AB6
:4001400013605C4A11605C4A136012225B4B1A6001F06CFC5A4A5B4B5B491A6000225B4BC8201A605A4B5B4A40011A605A4A11605A4A5B491A60A022D2000A6059491960A8
:400180005949086059490720196059490A60594A44211A608222584B12061A608022574BD2021A604023564A1360564A1160564A56491360564A13604222564B1A60564B8E
:4001C00001321A60554B023A1A6001F085FC072001F0A6FC524A534B08211A600622524B1A600823514A136013680B40FCD101214E4A4F48116003224E490A604E490A60FF
:400200008021090601604D4802604D4802604D4A13604D4A13680B43136004BC9046F0BD00300F4000400F40704D0000000002400001024000030240FF0F000000040240B6
:400240000007024000500F4008500F4010500F4018500F4020500F4001700F4030500F40600002006001204000700F400000044036001800080004400001044008010440E9
:40028000000204401802044000030440920D000008030440000404408EED0000080404400C0404401804044000060440080604400007044008070440180704403000104081
:4002C0000600008004010B4000DF0100000301400000014040FF00801003014044FF00800803014042FF00800C03014043FF00800403014041FF008008010B4000010B4026
:40030000380101403401014030010140051C00002C010140280101401401014008010140FF3F000008020B400C020B4010020B4000003A40300030403000314000033A4041
:4003400040033A40000E3F4080033A4010B5064C2378002B07D1054B002B02D0044800E000BF0123237010BD48010020000000004C4D0000084B10B5002B03D0074908480D
:4003800000E000BF07480368002B00D110BD064B002BFBD09847F9E7000000004C0100204C4D0000C000002000000000024B186059609A607047C04664010020FE22064B04
:4003C00092051A6000225A609A60DA601A61034A5A61034A9A6170476401002000FF7FC700FF7F47014BD8617047C04664010020014B18627047C04664010020014B5862F6
:400400007047C04664010020014B58619961704764010020F0B5564644464D465F46F0B43E4C83B0236A98464246E3691168186803F078F82168061C02F060FF656A0190E4
:4004400028602169301C02F033FDA369061C191C9A4602F019FD002800D056466369301C191C994602F0FCFC002800D04E46002763682661391C181C9B4602F0EBFC002897
:4004800048D1301C04F030FB06000F00584604F02BFB0022224B03F061FD32003B0004F073F8060001980F0004F01EFB02000B003000390003F026FA04F06AFB4346286091
:4004C0001F68E168061C381C03F02CF8A168E76002F014FF011C301C03F024F8041C011C504602F0BDFC002800D054464946201C02F0B6FC002800D04C4601202C6001F02B
:40050000C3FD01F0E7F903B03CBC90469946A246AB46F0BD276100260027B7E76401002000408F400C4B10B5984207DC0B4A90420CDA1C00012001F0D5F903E01C0000203C
:4005400001F0D0F9200001F09FF910BD002801DB0400F4E74442EDE7FFFF00000100FFFF10B5002001F0BEF9002001F08DF901F043F910BDF8B5802605000024760005E01C
:4005800001F08AFE28550134B4425CD001F0B6FD0028F5D1002C5BD0E3B2022B56D0033BDFB20137BC46280001222A492A4BAC441F00067871404E0877400A4200D1370042
:4005C0001E0079084E403A4200D10E00190077087940324200D139001E004F087E400A4200D13E00190077087940324200D139001E004F087E400A4200D13E001900770821
:400600007940324200D139001E004F087E400A4200D13E00013031008445C9D13302360A33431B041B0C29198A1E12780139097812020A439A4206D1084B2A781B789A4258
:4006400001D12000F8BD01204042FBE7014BEAE70020F7E7FFFF000001A000001C020020F0B5474680B4CA4C82B02478A0466C464546257010246D466C70040AA4466C46E7
:400680006546E070A57000246D462C7154796971002C00D1C2E200268400D51D1B192C786F7824023C4310C3547901360235A642F5D34746B74BB84A5F407B085A40FC0760
:4006C00000D5A3E2B44C5A085440DB0700D595E2B14C53085C40D20700D587E2AE4C5A085440DB0700D579E2AB4C53085C40D20700D56BE2A84C5A085440DB0700D55DE2A6
:40070000A54C53085C40D20700D54FE2A24C5A085440DB0700D53FE210239F4C53405A085440DB0700D52FE29B4C53085C40D20700D521E2984C5A085440DB0700D513E2B2
:40074000954C53085C40D20700D505E2924C5A085440DB0700D5F7E18F4C53085C40D20700D5E9E18C4C5A085440DB0700D5DBE1894C53085C40D20700D5D3E16446FF2225
:4007800022405340844A5C086240DB0700D4C1E1814B54086340D20700D4B3E17E4A5C086240DB0700D4A5E17B4B54086340D20700D497E1784A5C086240DB0700D489E130
:4007C000754B54086340D20700D47BE1724A5C086240DB0700D46DE16F4B54086340D20700D45CE1FF22104058406B4A43085A40C00700D44BE1684B50084340D20700D423
:400800003DE1654A58084240DB0700D42FE1624B50084340D20700D421E15F4A58084240DB0700D413E15C4B50084340D20700D405E1594A58084240DB0700D4F7E0564B0F
:4008400050084340D20700D4E9E0534A58084240DB0700D4DBE0504B50084340D20700D4CDE04D4A58084240DB0700D4BFE04A4B50084340D20700D4B1E0474A5808424078
:40088000DB0700D4A3E0444B50084340D20700D495E0414A58084240DB0700D487E03E4B50084340D20700D478E059403A4A4B085A40C90764D5384B51084B40D20758D500
:4008C000354A59084A40DB074CD5334B51084B40D20740D5304A59084A40DB0734D52E4B51084B40D20728D52B4A59084A40DB071CD5294B51084B40D20715D56946002497
:400900001A0A1B0213431B041B0C1A128A71CB716B46185D013401F0FFFB082CF8D1082002B004BC9046F0BD0B00E7E70A001A4B51084B40D207E1D4F6E70B00164A5908B4
:400940004A40DB07D5D4F1E70A00134B51084B40D207C9D4F1E70B000F4A59084A40DB07BDD4F1E70A000C4B51084B40D207B1D4F1E70B00084A59084A40DB07A5D4F1E760
:400980001A00054B51084B40D20799D4F1E7C0461C020020FFFF000001A000000300A04A59404B085A40C90700D584E7E8E702009B4B50084340D20700D576E7EEE70300F0
:4009C000974A58084240DB0700D568E7EFE70200934B50084340D20700D55AE7EFE703008F4A58084240DB0700D54CE7EFE702008B4B50084340D20700D53EE7EFE70300FB
:400A0000874A58084240DB0700D530E7EFE70200834B50084340D20700D522E7EFE703007F4A58084240DB0700D514E7EFE702007B4B50084340D20700D506E7EFE70300DA
:400A4000774A58084240DB0700D5F8E6EFE70200734B50084340D20700D5EAE6EFE703006F4A58084240DB0700D5DCE6EFE702006B4B50084340D20700D5CEE6EFE70300BE
:400A8000674A58084240DB0700D5C0E6EFE71A00634B50084340D20700D5B2E6EFE7FF222300104058405E4A43085A40C00700D5A1E6ECE722005A4B54086340D20700D58E
:400AC00090E6ECE72300564A5C086240DB0700D582E6EFE72200524B54086340D20700D574E6EFE723004E4A5C086240DB0700D566E6EFE722004A4B54086340D20700D555
:400B000058E6EFE72300464A5C086240DB0700D54AE6EFE72200424B54086340D20700D53CE6EFE7230029E622003D4C53085C40D20700D422E6F5E72300394C5A085440D4
:400B4000DB0700D414E6EFE72200354C53085C40D20700D406E6EFE72300314C5A085440DB0700D4F8E5EFE722002D4C53085C40D20700D4EAE5EFE72300294C5A08544075
:400B8000DB0700D4DCE5EFE72200254C53085C40D20700D4CEE5EFE722001023204C53405A085440DB0700D4BEE5EDE723001C4C5A085440DB0700D4AEE5EDE72200184C8D
:400BC00053085C40D20700D4A0E5EFE72300144C5A085440DB0700D492E5EFE72200104C53085C40D20700D484E5EFE723000C4C5A085440DB0700D476E5EFE72200084C4B
:400C000053085C40D20700D468E5EFE71300044C5A085440DB0700D45AE5EFE700207FE601A00000F0B5474680B4C0B06C46424B4E001B78411823700323A67063708842E8
:400C400000D371E08300D2186B46033603336E4410CA25121D705C7002339E42F8D10D1A6D000335EFB27B1CDBB2A8469C46BE1CF6B2002001223149314B6C461D00045D7D
:400C800061404C0865400A4200D125001C0069084C402A4200D10C00190065086940224200D129001C004D086C400A4200D12C00190065086940224200D129001C004D0805
:400CC0006C400A4200D12C00190065086940224200D129001C004D086C400A4200D12C000130C5B22100AF42C7D8230A2402234340AD1B0445441B0C013DFF3D1A122A70FE
:400D000000246D4640AF6744013FFF3F3B7001342878E4B201F000FA0135B442F7D3200040B004BC9046F0BD04239C46013B9846052603279DE7C0461C020020FFFF00003C
:400D400001A00000F0B5474680B4C2B0040017000E0001F0D3F9784B784D1A685B682C70002800D1D3E0764994460C68A04209D00024744B053208601A60200042B004BC69
:400D80009046F0BD6F4B002498461B689C45F4D302A80C60FFF7EEFB002800DCBDE06B465B7A032B00D131E2062B00D1B7E0102B00D16DE2012201346F46297862483970A6
:400DC000803B41406148DBB24D087B70BA706840C90700D49FE05D4D41084D40C00700D529005A4D48084540C90700D52800574D41084D40C00700D52900544D4808454009
:400E0000C90700D52800514D41084D40C00700D529004E4D48084540C90700D528004B4D41084D40C00700D529004B40474859084840DB0700D5010044484B085840C9073A
:400E400000D50300414859084840DB0700D501003E484B085840C90700D503003B4859084840DB0700D5010038484B085840C90700D50300354859084840DB0700D5010002
:400E800032484B085840C90700D503005A402F4953085940D20700D419002C4B4A085340C90700D41300294A59084A40DB0700D40A00264B51084B40D20700D40B00234AAE
:400EC00059084A40DB0700D40A00204B51084B40D20700D40B001D4A59084A40DB0700D40A001A4B51084B40D20700D40B0000251A0A1B0213431B041B0C1A12FA703B71E9
:400F0000785D013501F008F9052DF9D135E70C4B0024186031E728005DE704002DE76A466946927AC97A12025218100097420FD80222022440E7C046980100201C020020A3
:400F4000180200208C010020FFFF000001A000004346012119710B0044468340A4686F4623434446A3606B462C789B89A0463C7006245BBA9BB27C70040A800083511D0A9E
:400F8000A446BC70DCB24346BF48C04E58404308FA703D717C715E40014200D03300BB4859084840DB0700D50100B8484B085840C90700D50300B54859084840DB0700D54F
:400FC0000100B2484B085840C90700D50300AF4859084840DB0700D50100AC484B085840C90700D50300A94859084840DB0700D501000623A54859404B085840C90700D573
:401000000300A24958084140DB0700D401009F4B48084340C90700D403009C4958084140DB0700D40100994B48084340C90700D40300964859084840DB0700D50100934891
:401040004B085840C90700D41800904B41084B40C00700D40B00614659400B0048088B494140DB0700D40100884B48084340C90700D40300854958084140DB0700D401001A
:40108000824B48084340C90700D403007F4958084140DB0700D401007C4B48084340C90700D40300794859084840DB0700D40800764946080B007340C10700D43300FF2126
:4010C0000A405A401100714B52085340C90700D413006E4A59084A40DB0700D40A006B4B51084B40D20700D40B00684A59084A40DB0700D40A00654B51084B40D20700D448
:401100000B00624A59084A40DB0700D40A005F4B51084B40D20700D40B005C4A59084A40DB0700D40A006A40584953085940D20700D41900554B4A085340C90700D4130075
:40114000524A59084A40DB0700D40A004F4B51084B40D20700D40B004C4A59084A40DB0700D40A00494B51084B40D20700D40B00464A59084A40DB0700D40A00434B51085F
:401180004B40D20700D40B006340404A59084A40DB0700D40A003D4B51084B40D20700D40B003A4A59084A40DB0700D40A00374B51084B40D20700D40B00344A59084A403A
:4011C000DB0700D40A00314B51084B40D20700D40B002E4A59084A40DB0700D40A002B4B51084B40D20700D40B0000241A0A1B0213431B041B0C1A12BA71FB71385D013454
:4012000000F08AFF082CF9D10024B6E56A46517B147B7D2224026418002C02D103220324CAE59442FAD86A46907A02026846C07A101824180200A74200D279E6062B00D162
:4012400086E6102B06D0032BDED13200FFF7EAFC040092E501234246137100290ED0030001274D1EEDB2013592682D183C009C40013322439D42F9D143469A60330002AAEE
:40128000FFF7EEF9040078E5FFFF000001A000006A46147B517B240264187B22BCE7C04601220023064970B50C684D6812196B4101200A604B6001F04DF801F06FF870BDB3
:4012C0009801002010B5034801F04AF801F00AF810BDC046A112000010B501F0FDF9074B187000F013FBC043C0B200F001FB01F0E5F901F065FB01F087FB10BD1D020020F5
:4013000010B5034801F066FB01F014F910BDC046D9120000F8B56B4C2578002D02D0012D09D0F8BD01F058F9674E3378012B31D02578012DF5D101F0A3F90028F1D000F00D
:40134000E5FAC043C0B200F0D3FA062001F0BCF901F0ACF9072862D027002425283702260CE0012806D10421380001F08FF9635D3343635501F09AF9072850D00028F0D136
:4013800020000421143001F081F90123625D13436355EFE719004D4F3A6811405CD102200500154062D02371494B82435B6821721D126571A3713A60251D0421280001F079
:4013C0004BF90A2000F0CCFB0421280001F044F90A2000F0C5FB0421280001F03DF90A2000F0BEFB0421280001F036F90A2000F0B7FB0421280001F02FF90A2000F0B0FBC8
:4014000001F05CF900F082FAC043C0B200F070FA3A68304B13408BD13370257889E72378012B00D07DE72422A25C134200D178E7237D012B30D0002B3CD0022B33D0032B8A
:4014400005D1637D1902A37D0B432149CB6001239A432333E25464E71D492571096808129A436071A17125723A60A5E704231900114003D0164920718968F0E753059BD5D8
:4014800003232371124B21729B6A1812A371124B60711A403A608FE7637D1902A37D0B430B494B60D3E7637D1902A37D0B4308498B60CCE7637D1902A37D0B4304490B600C
:4014C000C5E7C046A001002090010020940100202C02002007040000FFFBFFFFF8B54F464646C0B462B6002000F002FA01F092FA5F4C2070FFF704FF012001F05BF801F055
:4015000065F8782001F06EF82378002B00D19FE0012B00D092E0574C05212000083001F087F80521200001F067F801F08FF800F0B1FD00F0BFFF00F0DFFFFFF7C3FE00F07B
:4015400003F98020000200F047F9FFF709F8FEF735FF494F3800FEF745FF484E3000FEF747FF474D2800FEF749FF8E21C720C9050006FEF749FF434800F08EF900F04AFD9A
:401580000023414C0120E36000F01EFB192000F099FAA06101E0FFF7BDFE002000F024FC0D2221000120FFF7CDFB00F01DF9374B9C46604402F05EF93060286802F038F9C6
:4015C000FEF7B0FF286803F08FFA0022304B02F0DBFF304B002202F0D7FF03F04FFA6061306802F025F920610C23E05E02F042F93860A06802F03EF98146606802F03AF930
:401600008046206802F036F94A464146FEF7CEFE002000F07BFF2062012000F077FFE3696062002BB7D00020FEF77CFF0022111C101CFEF7BBFE00F087FAACE700F066F904
:40164000C043C0B200F054F9322000F089FAF5E7084C0521200000F0EBFF20000521083000F0CAFF20000521103000F0D3FF5CE7A0010020504D00002002002028020020F7
:4016800024020020150400002C0200200080FFFF0000F03E0000594010B503F023FB03680C2B00D0FEE7FEE7F8B5104E002E18D000200F4DA9682C686A68002905D00023F1
:4016C000E758043380C29942FAD1E9680023002903D0D05004339942FBD1013E1035002EE8D103F005FBFFF7F9FEFEE701000000204F00000121104A70B513680F4C8B4339
:4017000013600F48002200230E4D04E00133A1500432302B08D00100032BF7D851590133A1500432302BF6D1FEF776FC0123024A11680B43136070BD0000104000000020FA
:40174000991600000000000070B51A4C2378002B1ED1C822C321184D92042A60174A89001160174A136001F068F92A68154B134080222B602B68520213432B6001F061F921
:401780008023114A1B021360104A13600123237001F053F902230E4A11680B43136001F050F901F04AF980220A4B92001A6001F048F970BDD80100204001204064012040F4
:4017C00078012040FFFFFCFF54012040480120400000204008002040024B0004000C18607047C04648012040024B18680004000C7047C0464801204010B518490A78002AA1
:401800001AD18020164BC00418601868186015480260186818600C20134B1860134B1A60134B31321A60134A134B1A608022134BD2011A6001230B7001F0FFF80123104A35
:4018400011680B43136001F0FCF801F0F6F880220C4B52041A6001F0F4F810BDD90100200001204008012040240120403801204028012040FFFF0000140120400C012040AC
:401880000000204008002040024B0004000C18607047C0460C01204010B58024094BE4031C609823084AD05001F0C7F8C023074A1B0411680B43136001F0C3F8044B1C6060
:4018C00010BDC04680E100E00000002014E400E000E100E08022024BD2031A607047C04680E200E0014B18707047C04672000F400300402004499B010A688243D2B218402D
:40190000104308607047C04600010440024B18684006C00F7047C0460401044070B582B001F08BF8364D04000022364E3F2002E001322E2A41D02B68B15C03408B42F7D1B5
:401940008021C9018C46304B033253436344DB0B591E2E4B1B68DB0635D02D4B18682D4B03400B43192A3CD92B495118B218907DA0220978520313434218FF2A34D89205DD
:401980001A43234B254D1A602B683020019301F05BF88021224AC90513680B431360214B186883001818800001F03EF8019B20002B6001F046F802B070BD144B1B68DB0640
:4019C00014D15B2103221F20104D2B688343133803432B600E4B18680E4B03400B43192AC2D8114A1A43CCE7FF22C8E7084B1A68084B13405B2213430B4A1A43C1E7C046C7
:401A00002CFF0B40F04D000040420F0034FF0B400800224000F800C0CDF1FF0F3000104000002240C40000200000D43F30B587B0050001F002F8194B04001A68520020D4E1
:401A40000022174B174819684019029116490338096802AB03910178144804911449096805911449009169460193134B1960134908601B68012A0AD0200000F0E2FF07B000
:401A800030BD19680E4A0A401A600122D9E700F095F80028F0D0FFF741FFEDE70000224008010B40F04D000000010B401700008030001040B6EA00000800104004001040A8
:401AC000FFFFFFBF02001920024902400B6818400A60704700030B40024B8000C31818681960704740000020F8B503273D000E000400054000F0A1FF084BA4089C46A400F0
:401B000064442168ED000B0031000635AF40A940BB431943216000F094FFF8BD00E400E01F2318401E3B8340014A13607047C04600E100E01F2318401E3B8340014A1360FB
:401B40007047C04680E100E0034A044913681B041B0C0B43136070470CED00E00400FA05F8B5802507002D02A84214D904000B4EF06800F059FF0A4B9C466444AC42F7D8C0
:401B8000084BFB18DB0BDB036744FF1A3068784300F04AFFF8BD014EF8E7C046C40000200080FFFFFF7FFFFF10B5034B1B7A584300F03AFF10BDC046C4000020014B1868F5
:401BC000C00F7047000022400D4A136803431360C30703D5022113681942FCD0C30505D58022074992000B681342FCD0C30305D58022034992020B681342FCD07047C046DE
:401C000010020B40714B70B51A680423134225D06F4A51680B420CD06E494C6A50681C40A04350604A6A9A438B694A62002B00D09847C02500F001FF674C2D022368060071
:401C40002B4200D0A0E0614B644A19680A4004210A431A601B68300000F0F3FE5B4B1A688023DB001A4226D0594A516819420DD058494C6A50682340984350604A6A584B22
:401C800013404B62CB69002B00D09847C02600F0D4FE514C360223680500334252D14B4A4E4B11680B408021C9000B4313601368280000F0C6FE454B1A688023DB021A420F
:401CC0001DD0434A52681A4204D0424B1B6A002B00D09847C02600F0B0FE3F4C36022368050033420CD1394A3C4B11680B408021C9020B4313601368280000F0A2FE70BD10
:401D000000F09BFE80212268364BC9011A400A43226022681340802212021343236000F090FE2A4A2D4B11680B408021C9020B431360136800F081FE23681E43266000F068
:401D400080FED9E700F079FE80212268254BC9011A400A43226022681340802212021343236000F06EFE194A1C4B11680B408021C9000B431360136800F05FFE23681E43FB
:401D8000266000F05EFE93E700F057FE80212268144BC9011A400A43226022681340802212021343236000F04CFE084B0B4A19680A4004210A431A601B6800F03EFE2368D6
:401DC0001D43256000F03DFE45E7C04610020B40D8000020DC01002000010B40FBFBFBFFFFFBFFFFFF3FFFFFF8B500280BD1032282490B681340032B00D187E00B6813404C
:401E0000022B45D0F8BD0128FCD103227B490B681B0A1340032B00D1B7E00B681B0A1340022BEFD18021764A090113680B43754913601368724C0B42FBD1C02700F0FDFDEB
:401E4000714D3F022B6806003B4200D18BE000F0F4FD80212A686D4BC9011A400A432A602A6813408022120213432B6000F0E9FD2268674B13408022D20013432360236891
:401E800000F0DBFD2B681F432F6000F0DAFD66E05B4A063311680B435A4913601368584C0B42FBD1C02600F0C8FD574D36022B680700334222D000F0C0FD80212A68534BE0
:401EC000C9011A400A432A602A6813408022120213432B6000F0B5FD22684D4B1340042213432360236800F0A8FD2B681E432E6000F0A7FD380000F0A4FD83E72268444BD3
:401F000013400422134323602368F3E7C02500F094FD3D4C2D02236806002B422CD000F08CFD80212268394BC9011A400A43226022681340802212021343236000F081FDDD
:401F40002F4B334A19680A4004210A431A601B6800F073FD23681D43256000F072FD300000F06FFD4EE72268294B13408022D200134323602368F2E7214B254A19680A4098
:401F800004210A431A601B68E9E7C02600F055FD1D4C360223680500334224D000F04DFD80212268194BC9011A400A43226022681340802212021343236000F042FD104A6F
:401FC000134B11680B408021C9000B431360136800F033FD23681E43266000F032FD280000F02FFD0EE7064A094B11680B408021C9000B4313601368F1E7C0460C020B40EA
:4020000010020B400808080000010B40FF3FFFFFFBFBFBFF10B5124B1A78002A0ED111481149124C08600C20114908600121114801601148046011480260197000F0FDFCC9
:4020400008230F4A11680B43136000F0FAFC00F0F4FC80220B4B12051A6000F0F2FC10BD0402002000060002C001204060EA0000E4012040F8012040D4012040C801204013
:402080000000204008002040014B18607047C046F001204010B50A4C2378002B03D100F071F8012323708021064A090613680B200B431360FFF734FD00F0DCF810BDC0469C
:4020C0000802002000002740094B0A4A1968136899420AD013680133212B04D00649C85C1360C0B270470023F8E70020FAE7C046880200206402002090020020044B18685E
:40210000044B1A681B68904200D22130C01A7047880200206402002010B51349134C22680B689A4215D022680132202A1AD00B689A42FCD002230E49C0B20B600D498854C0
:4021400022600D4A11680B4202D111680B43136010BD1F22094B1B681340082BE3D0084B1860F5E70022E2E7600200208C020020800F274068020020880F274008022740E4
:402180004002274070B500241F4A204B04251A601F4B204A1C60204B0B201A601F4A204B1A6007221F4B1A601F4B063A1C601F4B1A601F4A1F4B1A601F4B1C601F4B1D60D7
:4021C000FFF7B8FC03210B20FFF78EFC1C490B20FFF782FC1B4B1C601B4B1C601B4B1C601B4B1C601B4B1D601B4B1C601A681B4B1A801B4B1C601B4B1C601B4B1C701B4B77
:402200001C601B4B1C6070BD0F000002000027404000274001000A0048002740070200800003274004032740100327404400274007000080000227400402274050002740A0
:40224000912A0000880E2740C80E2740480F2740080F2740C80F2740880F2740100200208802002064020020B10200208C02002060020020F02205490B689343603A1343F3
:402280000B60034B1A88034B1A6070470007024010020020880F274010B50B20FFF74AFCFFF72CFF002812D104220C4B0B201C680B4B1A60FFF734FCD822094B92001868F1
:4022C0001A60D82300029B021840204310BD0B20FFF726FCFFF7F8FE0400EDE740032740C00F274010B5134B1A78002A0FD180201149800408600C2010496424086001211F
:402300000F4801600F4804600F480260197000F094FB04230D4A11680B43136000F091FB00F08BFB80220A4BD2041A6000F089FB10BDC0461202002080012040A401204017
:40234000B801204094012040880120400000204008002040014B18607047C046B001204010B58024094BA4031C609423084AD05000F063FBC023074A1B0211680B4313602A
:4023800000F05FFB044B1C6010BDC04680E100E00000002014E400E000E100E08022024B92031A607047C04680E200E070B503211020FFF799FB24491020FFF78DFB0322FB
:4023C000224B1A60224B1B68002B3ADB2149224A8020136840020B431360204A204B21491A60214A214B224D1A600023214A224C1360224A0A6022490A60224A1168014316
:40240000116021490A6802430A6001211F4A13601F4A13601F4A11601F49204A086802408020800502430A6080211D4AC90011601C481D4A1D490380116025604380516034
:4024400070BD1B49C3E7C0462925000020003A4080033A407020001000003A40FD00008004003A4010003A400000FF0718003A40010400001C003A4084003A400200020062
:4024800014003A4000033A4040033A4028023A4038023A4018023A4030003A40FEFFFFDF80003A40BC020020B40200203E1800007020101010B50D4C2378002B11D00C4B13
:4024C0001B68002B0CDB0B4A1368002BFCDB8021074A090613680A200B431360FFF764FB10BDFFF763FF01232370E8E71302002000003A4008023A408021034A4902136827
:402500000B4313607047C04604003A400023012805D8044B80009C46604403681BB218007047C04680013A40014B1A681A60704710023A4010B56420FFF712FB002000F032
:4025400023FA012000F02EFA00F02AFB00F0A0F900F0B0F97021072000F0EEF80021012000F0EAF80121022000F0E6F80321032000F0E2F81821042000F0DEF87821052028
:4025800000F0DAF80E21062000F0D6F800211C2000F0D2F801211D2000F0CEF80421112000F0CAF87F21002000F0C6F89620FFF7FBFA10BD10B50021002803D1002000F044
:4025C000F1F810BD002000F027F9FAE710B50021002000F021F910BD10B50021002000F0E1F810BD10B5011C7D2800D97D21C9B2052000F0A1F810BD10B5002806D00A00DA
:40260000052904D801000A2000F0B0F810BD0522F8E7C04610B5002806D00A00052904D801000B2000F0A2F810BD0522F8E7C04610B5002806D00A00052904D80100102086
:4026400000F094F810BD0522F8E7C04610B5012000F09AF910BDC04610B500280CD020290BD800F061F9012000F08EF90F20FFF79BFA002000F088F910BD2021F1E7C046BB
:4026800010B500F06BF94006C00F10BD70B504000D00002809D0002000F076F92000290000F01AF9012000F06FF970BD10B5072000F026F80007400F10BDC04610B57021FE
:4026C000072000F039F810BD0121814010B5C9B2072000F031F810BD10B500F03FF970231840202809D0402805D0102801D0702010BD0420FCE70620FAE70520F8E7C046E1
:4027000010B5040000F070FA00F0A2FA002000F049F9200000F078FAFF2000F075FA00F05BFA0228FBD1013800F03CF900F04EFA00F04CFAC0B210BD70B50C00050000F02C
:4027400053FA00F085FA002000F02CF92020284300F05AFA200000F057FA00F03DFA0228FBD1013800F01EF970BDC04670B514000D00060000F038FA00F06AFA002000F0B6
:4027800011F92020304300F03FFA2100280000F049FA013400F020FAA042FBD1012000F001F970BDF8B507000E0000F01DFA00F04FFA002000F0F6F8380000F025FAFF202C
:4027C00000F022FA00F008FA0228FBD1013800F0E9F800F0FBF900F0F9F9FF2303403341012504001D4216D000F0FEF900F030FA002000F0D7F8B5402020AC43384300F05E
:4028000003FAE0B200F000FA00F0E6F90228FBD1013800F0C7F8F8BDF8B507000E0000F0E3F900F015FA002000F0BCF8380000F0EBF9FF2000F0E8F900F0CEF90228FBD1C3
:40284000013800F0AFF800F0C1F900F0BFF9FF2303403341012504001D4217D100F0C4F900F0F6F9002000F09DF82020384300F0CBF92800B0400443E0B200F0C5F900F0BD
:40288000ABF90228FBD1013800F08CF8F8BDC04610B500F0A9F900F0DBF9002000F082F8E22000F0B1F900F097F90128FBD100F079F810BD10B500F097F900F0C9F900201B
:4028C00000F070F8E12000F09FF900F085F90128FBD100F067F810BD70B504000E0000F083F900F0B5F9002000F05CF8612000F08BF900F071F90028FBD000F067F9A51983
:40290000002E0CD0FF2000F07FF900F065F90028FBD000F05BF920700134AC42F2D1012000F040F870BDC04670B50C00050000F05BF900F08DF9002000F034F8A02000F0B3
:4029400063F92100280000F06DF9013400F044F9A042FBD1012000F025F870BD10B500F043F900F075F9002000F01CF8FF2000F04BF900F031F90128FBD100F013F800F031
:4029800025F9C0B210BDC0460300102004491B010A688243D2B21840104308607047C04600040440030008200449DB000A688243D2B21840104308607047C046000404401F
:4029C0002020034A1368184010604009C0B270471004044010B51024074B1C60074B186500F02BF8C023064A11680B43136000F028F8044B1C6010BD80E100E0000000201E
:402A000004E400E000E100E01022014B1A60704780E200E0024B18688006C00F7047C04604060440000000000230800803D00138FDD1C046C046C0467047EFF3108072B6F8
:402A4000704780F31088704710B50400FFF7F5FF102C15D9202C0BD9302C06D803220B490B689343013A13430B60FFF7EAFF10BD032206490B689343023A13430B60F4E797
:402A80000321024A13688B431360EEE730001040F0B54746314B80B41B68002B00D098472F4B1B685B0726D52E4B2F49984620232E4D2F4E2F4F9C462F4C1F2009E02A685D
:402AC00093420ED03268D2B2FA540B60236818420ED00B680133212BF1D100232A689342F0D13368624643461A7023681842F0D10422224B1A60224B1B689B0722D521488E
:402B00002149224F224E234D1F2407E0FA5CD2B232600B602B682340082B10D002680B689A4212D00B680133202BEFD10023FA5CD2B232600B602B682340082BEED102227D
:402B4000154B1A6004BC9046F0BD0221134A13688B4313600222104B1A60F3E70C020020CC0F2740B10200208802002064020020400327409002002008032740C00F2740B2
:402B80008C0F27408C02002060020020680200204002274008022740800F2740880F274010B5084C2378002B03D100F061F8012323708021044A090613680B43136000F06E
:402BC0009FF810BD1402002000002440014B18687047C046400324401F20024B1B6818407047C046080324408021054B49021A680A431A601968034A0A401A607047C04640
:402C000004032440FFFFFEFF1F2204490B681340082BFBD0024B18607047C046080224404002244070B5461800290BD01F220649064D04780B681340082BFBD001302C60DF
:402C4000B042F6D170BDC04608022440400224408021054B49021A680A431A601968034A0A401A607047C04604022440FFFFFEFF0720124A124B13491A60134A134B136037
:402C8000134B0B601349086013490B60002313490B6013490B6013490B6013490B6013490B6013490B6013490B600968124B19801168124B0B4013607047C0460F00000164
:402CC0000000244000032440200024400100008007010080040324400002244004022440880E2440C80E2440480F2440080F2440C80F2440880F244016020020FFFFFFF379
:402D0000F021054A090113680B431360034B1A88034B1A607047C0460004024016020020880F2440002243088B4274D303098B425FD3030A8B4244D3030B8B4228D3030C9D
:402D40008B420DD3FF22090212BA030C8B4202D31212090265D0030B8B4219D300E0090AC30B8B4201D3CB03C01A5241830B8B4201D38B03C01A5241430B8B4201D34B03CE
:402D8000C01A5241030B8B4201D30B03C01A5241C30A8B4201D3CB02C01A5241830A8B4201D38B02C01A5241430A8B4201D34B02C01A5241030A8B4201D30B02C01A5241DC
:402DC000CDD2C3098B4201D3CB01C01A524183098B4201D38B01C01A524143098B4201D34B01C01A524103098B4201D30B01C01A5241C3088B4201D3CB00C01A524183086D
:402E00008B4201D38B00C01A524143088B4201D34B00C01A5241411A00D20146524110467047FFE701B5002000F006F802BDC0460029F7D076E770477047C0468446081C23
:402E40006146FFE71FB500F015FA002801D40021C8421FBD10B500F0A1F94042013010BD10B500F007FA002801DB002010BD012010BDC04610B500F0FDF9002801DD0020B3
:402E800010BD012010BDC04610B500F0AFF9002801DC002010BD012010BDC04610B500F0A5F9002801DA002010BD012010BDC046F8B54A02430244004E00C50F240E2800D9
:402EC0009B09360EC90F92098D4259D0A01B002800DC8DE0002E1AD1002A00D079E05A0704D00F221A40042A00D004335A0138D50134FF2C00D189E028009B015B0AE4B231
:402F00005B02E4055B0A2343C0071843F8BDFF2CE5D08021C9040A431B2800DD89E016002021C640081A8240511E8A4132439B1A5A0114D59B019E09300001F0B5FE053848
:402F40008640844265DC041B330020200134E340041BA640721E964100243343BFE75A07BFD1DF082800FF2C2FD1002F00D187E08022D20313003B435B025B0AFF24BFE7C9
:402F8000A11B002949DD002E29D0FF2CA7D08026F60432431B2900DD8DE017002026CF40711A8A40511E8A413A439B185A01D6D50134FF2C64D0012276491A405B080B40EB
:402FC00013438CE7031ECAD100207B025B0AE4B296E701380028AAD0FF2C9DD17FE7002A00D17CE701390029DFD0FF2CD2D176E7002820D1601CC0B2012853DD80279E1A03
:40300000FF0437402FD0D61A0D0095E72800002376E7614B241A334061E700294DD1611CCEB2012E2FDDFF292AD09B185B080C0055E701227BE7002C1BD1002B5BD0C0435C
:4030400000280CD0FF2E7ED01B2800DD92E01D002024C540201A8340581E83412B43D31A34000D0064E7002E00D065E700200024ABE7FF2E67D08024E40440422343E3E7F9
:40308000FF2400233CE7002C61D1002B7ED0002A00D124E79B185A0100D460E73E4A0C0013401CE7002C1ED1002B2FD1002A66D013000D0013E7012277E7002C1FD1002B2F
:4030C0005AD0C94300290BD0FF2E50D01B295FDC1F002024CF40611A8B40591E8B413B439B18340062E7002B1CD1002A4AD013000D00FF24F3E6130034000D00EFE6FF2E53
:4031000035D08024E40449422343DFE7002A00D1E5E68027981AFF04074000D152E7D31A0D00DCE6FF24002A00D1D8E68020DB08C003034204D0D208024201D113000D00CD
:40314000DB00FF24CBE61300FF240D00C7E6002B0DD0FF24002A00D1C1E68021DB08C9030B42EDD0D2080A42EAD11300E8E71300FF24B4E6012372E713003400AFE6002776
:40318000002022E780270020FF03F1E61300A6E60123A5E7FFFFFF7DFFFFFFFB430270B542004C005D0AC30F4802120E460A240EC90FFF2A0FD0FF2C11D00120A24200D0A7
:4031C00070BDB542FCD18B420DD0002AF8D12800431E9841F4E70120002DF1D1EBE70120002EEDD1E9E70020EAE7C0464302F0B542005D0AC30F4802440A4800120E000EDB
:40320000C90FFF2A1FD0FF2822D0002A09D16E426E4100280FD1002C0DD10020002D09D005E0002801D1002C01D08B4213D0584201231843F0BD002EF7D048424141012076
:4032400049420843F6E7002DDDD002204042F1E7002CDAD0F9E78242E9DC04DBA542E6D80020A542E6D25842434101205B421843E0E7C0464302F0B542004C005E0AC30F0D
:403280004802120E450A240EC90FFF2A17D0FF2C19D0002A0BD170427041002C17D0002807D048424141012049420843F0BD002C13D08B4214D0584201231843F6E7022024
:4032C000002EF3D1E3E70220002DEFD1E1E7002DE5D10020002EE9D0EDE7002DE9D1EAE7A242E8DC04DBAE42E5D80020AE42DDD25842434101205B421843D7E7F0B557469B
:403300004E4645464300E0B446028846760A1F0EC40F002F47D0FF2F25D0002380259A469946F600ED042E437F3F434642465D02D20F5B006D0A1B0E904640D0FF2B39D096
:4033400080220020ED00D20415437F3BFB1842465746591C62408C4607430F2F5CD86F49BF00C9598F46002E45D108239A46063B9946DAE7424602282DD0032800D1C3E0ED
:40338000012800D0A2E0002500260240D4B27602ED05760A2E43E407264330001CBC90469946A246F0BD002E1AD104239A46033B9946BAE72A00511E8A41901CC6E70120C2
:4033C000002DC3D0280001F06FFC431F76309D4043420020BAE70124FF2514400026D6E7300001F061FC431F9E400023763047429A46994699E70C239A46093B994694E7E2
:4034000080260024F603FF25C1E735004846B2E7350022004846AEE72904090C0800370C3604360C2C0C7943704367437443060C64183619B14203D9802149028846474425
:403440000004000C310409188D01681E8541890E2943350CED19AD010D43290104D5012369081D4063460D4319007F31002925DD680704D00F202840042800D004352801AA
:4034800003D5274980330D401900FE29A3DC0124AD016E0A1440CDB279E78020C003064207D0054205D128434602760A4446FF256DE706437602760AFF2568E70124611A5F
:4034C0001B2905DD14400025002660E76346CBE72E002023CE40591A8D406B1E9D412E43730704D00F233340042B00D00436730104D5012401251440002648E70124B60185
:40350000760A1440002542E780260124F6032E437602760A1440FF2539E7C046384E0000FFFFFFF7F8B54A024E0043024400240EC50F9B09360EC90F9209FF2E00D183E092
:4035400001204140A01BA9425CD0002800DC95E0002E1CD1002A00D081E05A0704D00F221A40042A00D004335A013BD50134FF2C00D191E001209B015B0AE4B205405B028C
:40358000E4055B0AED0723432B431800F8BDFF2CE3D08021C9040A431B2800DD90E016002021C640081A8240511E8A4132439B1A5A0115D59B019E09300001F075FB053804
:4035C000864084426CDC041B330020200134E340041BA640721E964100243343BDE70D005A07BCD1DF0801231D40FF2C33D1002F00D190E08022D20313003B435B025B0A97
:40360000FF24BCE700284FDD002E2ED0FF2CA4D08025ED042A431B2800DD97E016002025C640281A8240501E824132439B185A01D5D50134FF2C6DD001227B481A405B0808
:40364000034013430D0088E7002A00D07AE777E7031EC5D100257B025B0AE4B28FE701380028A4D0FF2C97D177E7002A00D174E701380028DAD0FF2CCDD16EE7002821D153
:40368000601CC0B2012858DD80279E1AFF0437402FD0D61A0D008FE701231D4000236EE7624B241A334058E7002851D1601CC6B2012E33DDFF282DD09B185B0804004CE7EF
:4036C000012274E7002C1AD0FF2E1FD08024E404404223431B2800DD96E01D002024C540201A8340581E83412B43D31A34000D005EE7002E00D05FE700250024ABE7002B48
:4037000044D0C0430028F0D0FF2EE3D11300FF240D0022E70D00FF24002330E7002C5DD1002B7DD0002A00D117E79B185A0100D456E73E4A040013400FE7002C1ED1002BEE
:403740002FD1002A65D013000D0006E701226DE7002C1FD1002B59D0C04300280BD0FF2E4FD01B285EDC1D002024C540201A8340581E83412B439B18340058E7002B1CD1DE
:40378000002A49D013000D00FF24E6E6130034000D00E2E6FF2E34D08024E40440422343DFE7002A00D1D8E68027981AFF04074000D14DE7D31A0D00CFE6FF24002A00D102
:4037C000CBE68020DB08C003034204D0D208024201D113000D00DB00FF24BEE6002B10D0FF24002A00D1B8E68020DB08C003034203D0D208024200D11300DB000D00FF24D5
:40380000ABE61300FF24A8E601236EE713003400A3E6002700251EE780270025FF03E9E613009AE60123A6E7FFFFFF7DFFFFFFFB4302590A4300C20F1B0E00207E2B0EDDAD
:403840009D2B0DDC802000040143952B0BDC9620C31AD9400B005842002A00D118007047034BD018FBE7963B99400B00F3E7C046FFFFFF7F70B5002830D0C317C5185D4023
:40388000C40F280001F010FA9E231B1A962B0DDC9622D21A95406A02520AD8B25202C005520AE40702432243100070BD992B19DC9922D21A9540124A2A40690704D00F21F1
:4038C0000D40042D00D00432510103D50C4B1A409F231B1A9201520AD8B2DFE7002400200022DBE705222E00121AB921D6402A00C91A8A40551EAA4135001543DBE7C04610
:40390000FFFFFFFBF8B556465F464D464446F0B40F00FD0FAA4609037C002E005F00450F490A7F0D2943C5001803BC46400A570F640DDB0F3843D2009A4500D1AAE0664601
:40394000A61B002E00DCFFE06346002B39D10300134300D0D9E06B0709D00F232B40042B05D02B1DAB42AD416D4249191D000B0200D482E0CA4B01349C4200D1FEE00A007C
:403980005646C84BED081A405007640552020543120B640D002112030B0D1B056405120B1A436308C04CF60714401C43640064083443280021003CBC90469946A246AB4691
:4039C000F8BDB74B9C42C6D080231B041843382E00DDEBE01F2E00DD1EE120239B1B9C4603006746BB40984613004746F3403B436746BA40571EBA4113430200F240EB1AED
:403A00009D42B6411D008A1A7642911B0B0231D54A02560A002E00D1B4E0300001F044F90300083B1F2B00DDB5E020222900D21AD1409E400A009D4032439C4200DDB1E0EB
:403A40001C1B631C1F2B00DDD5E0202114002800C91A8C40D8408D400443DA40681E854111002543002476E74146314300D134E2310045466B0700D06FE756464807ED08E6
:403A8000C9080543864B9C4235D00A036405120B640D7FE76346E31A9B46002B00DC8BE06746002F3CD07E4FBC4200D153E780273F0438435B46382B00DCF7E00243501E49
:403AC00082410020D2B253194218AB4289411D00494289180B02CDD5714B01349C4200D13DE101206F4A6B080A4028401843D507054351082FE72B000B4300D1CBE18023A6
:403B00001B030B431A03120B44E7013E002E6DD1AE1AB5429B41091A5B42C91A350075E70700174300D116E701235B429C46E3445B46002B00D0E0E0AA18AA429B4109183A
:403B40005B4259181500C5E7002E75D1661C7605760D012E00DCF3E0AE1AB0464545BF410E1A7F42F61B370200D48FE0551BAA42B641411A76428E1B9A464BE75646002207
:403B8000002507E7280001F08FF820300300083B1F2B00DC49E72A002838824000259C4200DC4DE73F49E41A1140D4E60243501E8241D3B2002222E7002B00D0F3E0631C03
:403BC0009C465B055B0D012B00DC9FE0344B9C4500D1C3E0AA180918AA42804140424118CD075208154349086446B4E62C4B9C4200D0ECE6AFE611001F3CE1400C00202BCA
:403C000000D17FE04021CB1A9A4015436A1E95410021254300242DE733000700203BDF403B00202E70D04027BE1BB0400243501E824113430022E2E6002C4FD0184CA445C2
:403C400000D1ABE08024240476422143382E00DDDFE01F2E00DD43E12027BC1BA1460C004F46BC40A0462C004746F4403C434F46BD406F1EBD41F1402C43151BAA42924110
:403C8000411A5242891A64469A46BFE641464546314300D0BEE6002600240025F2E6C046FF070000FFFF7FFFFFFF0F801F2B59DC2027FF1ABC46070063469F405B46B946DD
:403CC0001700DF40B8464F4643461F4363469A40531E9A415B463A43D840F4E60C002C435CD0F643002E55D1551BAA42A441411A6442091B9A46644688E6964FBC4200D0EC
:403D0000D8E628E6002280E700208FE70B002B43002C00D0C2E0002B00D101E10300134300D118E6AB18AB42B6410918764271180A0200D409E1884A1D00114064460AE6CE
:403D4000002C5BD10E002E4300D08AE00100114300D1C2E0010015009A46FCE56446002100258FE620235B429C46DC4463460700DF405B46BC46202B00D1ACE040235F462A
:403D8000DB1B98400243501E8241634613431A00002098E66F4CA44500D057E70100150064469A46D7E5002C39D10C002C436ED0DB43002B1AD0674CA44568D0382B00DDC4
:403DC000A4E01F2B00DDAEE020240F00E41AA740B9462F00DF40B846A3464F46444627435C46A5406C1EA541D9403D43AD1895429B4109185B42591864466BE60C002C43E8
:403E000015D1010011437BD0010015009A46514CA1E50D43691E8D410021ECB22DE74D4CA44534D0802424045B422143C6E7040014434ED0ED084C072C438025C9082D0395
:403E4000294208D0C6082E4205D1D208410711430C009A463100620FC900E50011433D4C79E50600164300D175E5AE1AB0464545BF410E1A7F42F61B370200D4F4E5551BDC
:403E8000AA42B641411A7642891B9A4663E50100150064465FE5002200257BE5002B3BD00300134315D0ED084B072B438025C9082D03294207D0C4082C4204D141070B0022
:403EC0002100D2081343C9005A0F1143DD00214C41E5204C3FE5002054E700260025D1E534000F00203CE7403C00202E2BD04027BE1BB1400D43691E8D4100212C43BCE63C
:403F0000802100260903134C0025BBE50D43691E8D410021EDB269E7010015000D4C1AE50100150017E51C000F00203CE7403C00202B0CD04027FB1A99400D43691E8D414A
:403F40000021254352E70021D4E71D0092E50021F3E7C046FF070000FFFF7FFFF0B556464D4644465F46F0B41D000E034C00CB0F87B0070092468146360B640D98466AD0EA
:403F80006D4B9C4235D08022430F12041343F6001E43C3009946694B00279C460023644402932B0368001B0BED0F51469B46400D009500D178E0604B98426CD05B46DA0079
:403FC0004B0F802109040B4313439B465346D9005A4B9C46002360444246201A6A40924601901F430F2F00D9B0E05548BF00C0598746374300D088E000239946023308273C
:4040000000260293CDE74346B34649460093029B009A9246022B00D0BFE1002153460122002689461A40444B002136030C0D2405360B2643434C1B0526401E437600D207FB
:40404000760816434846310007B03CBC90469946A246AB46F0BD330003434FD0002E00D1BCE1300000F020FE03000B3B1C2B00DDADE11D220100D31A08393A008F408E400E
:40408000DA40B9461643304B00279C46002360444442029385E753465A4613432CD1002300219B46023397E70B4320D05B46002B00D19EE1584600F0F7FD03000B3B1C2BEC
:4040C00000DD8FE102005946083A91408B461D21CB1A5146D9400B0059460B4351469B469140194B9C4660444042002374E7002300219B4601336FE703236DE700239946C5
:4041000001330427002602934BE703230C27029347E70122D51A382D00DCB0E153461A4000210023002689467EE700238026994600223603004B77E7FF07000001FCFFFFF5
:40414000784E0000FFFF0F80F30300005E4500D972E100D16DE1019B4D46013B01930023340002935B461E020B0E1E430B020393330C994633041B0C494620000093FEF78C
:40418000D1FD009B370043430600494620009846FEF74EFE2C0C09040C43A04509D9E419731EA74200D95CE1A04500D859E1023EE4194346E41A49462000FEF7B3FD03000B
:4041C000009A80465343494620009B46FEF730FE2A040904120C0A4393450DD94346D219013B974200D93AE1934500D837E102235B429C46D219E0445B46D21A434636046A
:4042000033439B460399180C0B0C1D00059309045B46090C0C001B041B0C4443049159436B4368431B190D0CEB189C4203D980246402A44660441C0C09041B04090C201832
:404240005D18824200D2DEE000D1D7E0161A029B9C465D1BAC459B415B42F61AB74200D106E149463000FEF75DFD009B04004343494630009846FEF7DBFD2E0C09040E4366
:40428000B04509D9F619631EB74200D9F3E0B04500D8F0E0023CF6194346F31A494618000293FEF73FFD009B06004343494602989846FEF7BDFD2D0409042D0C0D43A84574
:4042C00009D9ED19731EAF4200D9D6E0A84500D8D3E0023EED192404210043463143049E059A3000ED1A0B040C0C1B0C58436643534354439A19030C9B189E4203D98022B7
:404300005202944664441A0C00041B04000C14191B18A54250D34DD001231943964A019B94466344002B00DCF3E64A0709D00F220A40042A05D00A1D8A42894149428B44AF
:4043400011005A46D20108D55A468C4B1A4093468022D2009446019B6344894A934200DD5BE65A46C908500708435602514601225B058146360B5B0D0A4055E680231B03A0
:404380001E4211D05A461A420ED15E461E433603360B2A0089467B4B46E6032B00D1E1E0012BBBD11A40BBE61E433603360B4246744B39E6002BB1D07D194A1EAF4252D9FD
:4043C0001100A542A8D1039A9A42A5D1A6E703003E00283B9E400023994654E600F064FC203041E603005246283B9A400021934677E6504600F058FC20305EE6029B0026EB
:40440000AB4200D323E7039E0299B44661448846B045B6415B467642F619B218013B0291974213D290424FD800D18EE0161A9B460DE7894500D28EE674084B46F6073500CE
:404440005B081D434B46DB0702938BE69742EDD10399029CA142E5D93E1A9B46F7E69846CAE61E00A5E6AC423ED874D0110053E70121494252E71C000EE71E002BE71F2D3B
:404480003CDC20230A0058465B1B9840EA4099400243481E81415E461143EE404B0709D00F230B40042B05D00B00191D99429B415B42F61833023CD55346012200211A4049
:4044C000002601238946AFE502235B429C46039CE344A446029B63449846A045B6417642F6190293B218B1E603988A1E41008142B6417642F619AD19039161E71F22524284
:40450000D31A5A46DA401300202D29D040225846551BA8400143481E814107200B4318400026002809D00F2200261A401900042ABBD10B0070077602360BDB0803439946FC
:40454000012253461A4000236EE502998D42BBD89B4600267BE603989842C5D3110032E70020D7E780265B4636031E433603360B009A8946034B57E5FF030000FFFFFFFEEA
:40458000FE070000FF070000F0B55F4656464D464446F0B40D0399464E002B0B87B00700924680469B46760DCC0F002E69D06D4B9E4235D05B468022DD001204430F1343D9
:4045C0002B439B46C3009846674B00279C460023664401934A4615035000D20F53462D0B400D914600D176E05E4A90426CD080225B0F120413435C4AED0094461D43534626
:404600000022DB00604449463618701C6140029017430F2F00D9AFE05448BF00C759BF465B461F4300D088E000239B469846023308270193CEE74946022A6AD0032A00D100
:4046400009E2012A00D0BBE111400022002300259046CCB200212D030A0D12052D0B1543434A1B0515401D436D00E4076D0825434046290007B03CBC90469946A246AB4617
:40468000F0BD034352D05B46002B00D18AE1584600F00AFB03000B3B1C2B00DD7BE11D22D31A3A0001005D46DA4008398D4013008F402B439B46B8462E4B00279C4600237B
:4046C00060444642019385E752462A432CD100250023022297E752462A4321D0002D00D154E1280000F0E0FA03000B3B1C2B00DD46E11D21CB1A51460200D9405346083A43
:40470000954093400D431B4A944660444042002279E7012400220C40124B0025904699E70025002301226EE703226CE700239B4698460133042701934CE703230C27019302
:4047400048E700238025984600242D03054B81E75D464346019A6FE75D4643462100019A6AE7C046FF07000001FCFFFFB84E0000FFFF0F80F30300004246120C91461A0CCF
:404780009446424617044A461B041B0C5A43604690464A4642431000039262461C003F0C7A437C4342440192220C9246019A5244904506D98246802040028046C244504638
:4047C0000390100C049048462404240C1204121905922A0C2D042D0C68432C00824648467C4350438146200C8046574357444744BA4503D9802040028046C144380C3F0411
:40480000B84648442404240C01900498A044404404905846000C814658460404200C8246070048465F434C464343604660436446834650464443380C8446E4186444A342A3
:4048400003D980235B029C46E34448463F04230C3F0C2404E419574668436F4384464D46504655434243380C814662444A445B44944503D9802040028446654403983F0413
:40488000834604983F0C8446E344C345804140428246100484460198674484466744A344BC46A345A4419946D44464428742BF41D4458041E144A04699459B417F424042AF
:4048C000C8440743120CBA18A045A4415F423B0064422343D71843467D19DB0D6D021D435B465A02059B1A43531E9A415B46DB0D1A4343465B021343EA0107D501225C0845
:4049000013402343EA07029E13436D08574AB218002A4BDD580709D00F201840042805D0181D98429B415B42ED180300E80104D54F4A15408022D200B2184E48824200DD30
:40494000E7E60124DB08680718436D02530580462D0B5B0D0C407DE6802259461203114208D0154206D115432D0398462D0B4C46414B6FE65D4615432D032D0B3E4B69E6C1
:4049800003005546283B9D400023BCE6504600F08BF92030A8E60300283B9F400023BB46984689E600F080F9203073E60124A61A382E07DD00220C4000230025904649E6BA
:4049C000029EA3E71F2E20DC20222C001800921BF040944093400443581E83411C43F540630709D00F232340042B05D023001C1D9C4292415242AD182B021FD5012400227B
:404A00000C4001230025904624E61F202C004042821AD440202E1CD04022961BB5402B43581E83410720234318400025002809D00F2200251A401C00042AD8D1230068073A
:404A40006D022D0B0124DB08034398460C40002300E60025E3E780220124120315432D0398462D0B0C40044BF4E5C046FF030000FFFFFFFEFE070000FF0700000B0330B530
:404A8000134D1A0B4B005B0DC90F0024AB4211DD104CA34210DC8024640322430E4CE41A1F2C0CDD0D48C31ADA4013005C42002900D11C00200030BD094BCC18FAE7E04065
:404AC000084CA44663449A4013000343EEE7C046FE0300001D0400003304000013040000FFFFFF7FEDFBFFFF4200120E511C4302C9B270B55D0AC40F012915DDE02189005D
:404B00008C466D071B0B6244002128000D0D2D052B431C4D52052B40520813435B00E4075B082343190070BD002A15D1002D1FD0280000F0B9F80A281DDC0B232A001B1A83
:404B4000DA4013000200153295400F4A1B03121A52051B0B520DD7E7002D06D080221B0B120313436D07094ACEE7084A0023CBE700220023C8E703000B3B9D402B0000256A
:404B8000E3E7C046FFFF0F8089030000FF0700004B0070B55E0D0C03751C640A420F6D052243C90FC4006D0D012D2ADD3B4BF318FE2B1ADC002B42DD8001451EA841D20011
:404BC0001043620F0243500704D00F201040042800D004328020C004104021D00133FF2B03D09201520ADBB201E0FF2300225202520ADB0513435B00C9075B080B4318007F
:404C000070BD002E07D01443EFD08020D20080040243FF23D7E722430023002A03D00522D208FF2B03D05202520ADBB2DFE7002A32D08020C00302435202520AD7E7180031
:404C4000173014DB8020000402431E20C01A1F280FDC2500124BF3189D406E1EB5419A402B0013432200C2401A430023ABE70023D5E702256D42EB1A1500DD40202809D041
:404C8000084BF3189A401443621E9441220000232A4398E70022F6E70022A8E780FCFFFF82FCFFFFA2FCFFFF1C2101231B04984201D3000C10391B0A984201D3000A0839FC
:404CC0001B09984201D30009043902A2105C40187047C04604030202010101010000000000000000014B18687047C046400100200E4B70B500251E000D4CE41AA410A542CB
:404D000004D0AB00F35898470135F8E700F0F6F8084B00251E00084CE41AA410A54204D0AB00F35898470135F8E770BD084F0000084F0000084F0000104F00000300821868
:404D4000934202D019700133FAE77047000000003A294132420000003A294232410000003A294D32410000003A2941324D0000000E320F400F330F4002400F4008410F4078
:404D80000F430F401A032C012E02300132023E0558045B045F01AE01B201D804DC08DF310E08100115401B041E906D4078028304864088038E14C240C481DE01E6106280FB
:404DC000D64057085B20828087088F20A680D4C0E660000A0402068019086801700188048A808D08C00CC608DA02DC01E206E604030405060708090A0B0C0E0F10111213F4
:404E00001415161718191B1C1D1E1F2021222325262728292A2B2E2F3031323334350000EEDBC9B9AA9B8E82766B60564D443B332C241D17100A0400183400007633000063
:404E400076330000743300000A3400000A34000000340000743300000A340000003400000A340000743300001034000010340000103400009A3400004C4100001A400000B3
:404E80002041000010400000204100002A41000020410000104000001A4000001A4000002A410000104000000640000006400000064000007C430000784700003846000087
:404EC000384600003646000050470000504700004247000036460000504700004247000050470000364600005847000058470000584700005849000043000000F8B5C046DE
:404F0000F8BC08BC9E46704775030000F5160000F8B5C046F8BC08BC9E4670474D030000304F0000C000002088000000780100000000000080BB00000100000030000000F9
:404F40000000C05D006CDC02F0000000040404000000000000000000000000000000000000000000000000000000000000000000F84E000000000000000000000000000088
:404F8000000000000000000000000000000000000000000000000000000000000000000000000000000000000000000000000000E0000020000000000000000000000000F1
:404FC00000000000000000000000000000000000000000000000000000000000000000000000000000000000000000000000000000000000000000000000000000000000B1
:405000000000000000000000000000000000000000000000000000000000000000000000000000000000000000000000000000000000000000000000000000000000000070
:405040000000000000000000000000000000000000000000000000000000000000000000000000000000000000000000000000000000000000000000000000000000000030
:4050800000000000000000000000000000000000000000000000000000000000000000000000000000000000000000000000000000000000000000000000000000000000F0
:020000040001F9
:0200000490303A
:020000001D657C
:0200000490402A
:4000000000000000000000000000000000000000000000000000000000000000000000000000000000000000000000000000000000000000000000000000000000000000C0
:400040000000000000000000000000000000000000000000000000000000000000000000000000000000000000000000000000000000000000000000000000000000000080
:0200000490501A
:0C0000000002112D11A1000111472F0674
:0200000490600A
:0100000001FE
:00000001FF