:400000000040002011000000710500007105000010B500F0CBFAC046F0B5474680B472B680220021D2007B4801F059FC80220021D200794801F053FC0023784F98463E001B
:40004000FF3300259C461436634678597A5D9843002A12D0013A4146D2B2434690460131884442465B005400F31834191A7859781218023311709C42F8D10435142DE3D17B
:40008000C022674B92051A603322664BA8211A60EE22654B12021A60644A654B49051A609922644B30201A609923634A1B041360624A1160B021624AC9031360614A1160BA
:4000C000614A62491360624A1360624A624B1A603C220B789343283A13430B7016235F4A11780B43137080225D4B5E491A60C0225D4B12041A6003235C4A13605C4A116044
:400100005C4A312113605C4A13605C4A13605C4A5C4B1A600D225C4B1A605C4A5C4B1A6080225C4B12011A6005225B4B1A6002235A4A13605A4A11605A4A136012225A4BE6
:400140001A6000F021FB594A594B5A491A600022594BC8201A60594B594A40011A60594A1160594A59491A60A022D2000A60584919605849086058490720196057490A602C
:40018000574A44211A608222564B12061A608022554BD2021A604023544A1360544A1160544A55491360554A13604222544B1A60544B01321A60544B023A1A6000F03AFBD1
:4001C000072000F05BFB514A514B08211A600622504B1A600823504A136013680B40FCD101214D4A4D48116003224D490A604D490A608021090601604B4802604B480260D1
:400200004B4A13604B4A13680B43136004BC9046F0BDC04600300F4000400F4098210000000002400001024000030240FF0F0000000402400007024000500F4008500F4028
:4002400010500F4018500F4020500F4001700F4030500F40600002006001204000700F4000000440360018000800044000010440080104400002044018020440000304408D
:40028000920D000008030440000404408EED0000080404400C04044018040440000704400807044018070440300010400600008004010B4000DF01000003014000000140CD
:4002C00040FF00801003014044FF00800803014042FF00800C03014043FF00800403014041FF008008010B4000010B40380101403401014030010140490900002C0101403F
:40030000280101401401014008010140FF3F000008020B400C020B4010020B4000003A40300030403000314000033A4040033A40000E3F4080033A4010B5064C2378002B0E
:4003400007D1054B002B02D0044800E000BF0123237010BD500100200000000038210000084B10B5002B03D00749084800E000BF07480368002B00D110BD064B002BFBD000
:400380009847F9E7000000005401002038210000C00000200000000010B500F0ABFE074B187000F061F9C043C0B200F04FF900F093FE01F02BF801F04DF810BDAC0100203C
:4003C00010B5034801F02CF800F0BAFD10BDC04699030000F0B55F4656464D464446F0B491B062B6002000F031F9FFF7E9FF594C0521200000F014FE0521200000F002FE87
:4004000000F0AAFC0023544C0120E36000F07EFA192000F005FA514DA0612B78002B00D18DE0002000F0CCFD00F0DCFD782000F0DFFD00F017FE4A4B08AC9B46494B98461D
:40044000494B9A462B1D9946002000F06FFB2B78002B20D0642000F025FA00F009FE060000F034FE00282AD10221484600F004FE00F0FEFD830635D432004146200001F0EA
:4004800037FA2021200000F081FC002000F04EFB2B78002BDED100F0EBFD060000F000FE00282FD132003149200001F021FA2000202100F06BFC0A2000F0F4F9C4E700F041
:4004C000BDFD23005A4683CA83C383CA83C32021200000F05BFC042000F004FE00F0C8FD8306C9D500F0C0F8C043C0B200F0AEF82B79052001332B716B7901336B7100F08F
:40050000F1FDB9E700F0B0F8C043C0B200F09EF8062000F0E7FD6846022100F0C7FD6B466A465B7812785146200001F0E1F92000202100F02BFC0A2000F0B4F9B2E70120E2
:4005400000F03EFD00F048FD782000F051FD00F083FD70E73C210000BC010020C4000020442100005C2100006C2100008421000010B501F07FF903680C2B00D0FEE7FEE7E2
:4005800003000849084A086810B5C3189A1A802A01DC0B6010BD01F06DF90C23036001204042F7E7CC00002040020020F8B5104E002E18D000200F4DA9682C686A6800291D
:4005C00005D00023E758043380C29942FAD1E9680023002903D0D05004339942FBD1013E1035002EE8D101F04BF9FFF7F3FEFEE701000000BC2200000121104A70B51368D0
:400600000F4C8B4313600F48002200230E4D04E00133A1500432302B08D00100032BF7D851590133A1500432302BF6D1FFF7F4FC0123024A11680B43136070BD0000104083
:400640000000002071050000000000000300402004499B010A688243D2B21840104308607047C04600010440024B18684006C00F7047C0460401044070B582B000F0F9FEA2
:40068000364D04000022364E3F2002E001322E2A41D02B68B15C03408B42F7D18021C9018C46304B033253436344DB0B591E2E4B1B68DB0635D02D4B18682D4B03400B434E
:4006C000192A3CD92B495118B218907DA0220978520313434218FF2A34D892051A43234B254D1A602B683020019300F0C9FE8021224AC90513680B431360214B186883006F
:400700001818800000F0ACFE019B20002B6000F0B4FE02B070BD144B1B68DB0614D15B2103221F20104D2B688343133803432B600E4B18680E4B03400B43192AC2D8114A52
:400740001A43CCE7FF22C8E7084B1A68084B13405B2213430B4A1A43C1E7C0462CFF0B401C22000040420F0034FF0B400800224000F800C0CDF1FF0F300010400000224058
:40078000D00000200000D43F30B587B0050000F070FE194B04001A68520020D40022174B174819684019029116490338096802AB03910178144804911449096805911449C0
:4007C000009169460193134B1960134908601B68012A0AD0200000F050FE07B030BD19680E4A0A401A600122D9E700F089F80028F0D0FFF741FFEDE70000224008010B4067
:400800001C22000000010B401700008030001040B6EA00000800104004001040FFFFFFBF02001920024902400B6818400A60704700030B40024B8000C318186819607047B5
:4008400040000020F8B503273D000E000400054000F00FFE084BA4089C46A40064442168ED000B0031000635AF40A940BB431943216000F002FEF8BD00E400E01F231840E0
:400880001E3B8340014A13607047C04600E100E01F2318401E3B8340014A13607047C04680E100E0F8B5802507002D02A84214D904000B4EF06800F0D3FD0A4B9C466444BB
:4008C000AC42F7D8084BFB18DB0BDB036744FF1A3068784300F0C4FDF8BD014EF8E7C046D00000200080FFFFFF7FFFFF10B5034B1B7A584300F0B4FD10BDC046D0000020CF
:40090000014B1868C00F7047000022400D4A136803431360C30703D5022113681942FCD0C30505D58022074992000B681342FCD0C30305D58022034992020B681342FCD0A1
:400940007047C04610020B40714B70B51A680423134225D06F4A51680B420CD06E494C6A50681C40A04350604A6A9A438B694A62002B00D09847C02500F07BFD674C2D02A0
:40098000236806002B4200D0A0E0614B644A19680A4004210A431A601B68300000F06DFD5B4B1A688023DB001A4226D0594A516819420DD058494C6A506823409843506042
:4009C0004A6A584B13404B62CB69002B00D09847C02600F04EFD514C360223680500334252D14B4A4E4B11680B408021C9000B4313601368280000F040FD454B1A688023D2
:400A0000DB021A421DD0434A52681A4204D0424B1B6A002B00D09847C02600F02AFD3F4C36022368050033420CD1394A3C4B11680B408021C9020B4313601368280000F0FD
:400A40001CFD70BD00F015FD80212268364BC9011A400A43226022681340802212021343236000F00AFD2A4A2D4B11680B408021C9020B431360136800F0FBFC23681E4301
:400A8000266000F0FAFCD9E700F0F3FC80212268254BC9011A400A43226022681340802212021343236000F0E8FC194A1C4B11680B408021C9000B431360136800F0D9FC64
:400AC00023681E43266000F0D8FC93E700F0D1FC80212268144BC9011A400A43226022681340802212021343236000F0C6FC084B0B4A19680A4004210A431A601B6800F01C
:400B0000B8FC23681D43256000F0B7FC45E7C04610020B40E40000206C01002000010B40FBFBFBFFFFFBFFFFFF3FFFFFF8B500280BD1032282490B681340032B00D187E091
:400B40000B681340022B45D0F8BD0128FCD103227B490B681B0A1340032B00D1B7E00B681B0A1340022BEFD18021764A090113680B43754913601368724C0B42FBD1C027E2
:400B800000F077FC714D3F022B6806003B4200D18BE000F06EFC80212A686D4BC9011A400A432A602A6813408022120213432B6000F063FC2268674B13408022D20013431D
:400BC0002360236800F055FC2B681F432F6000F054FC66E05B4A063311680B435A4913601368584C0B42FBD1C02600F042FC574D36022B680700334222D000F03AFC8021F1
:400C00002A68534BC9011A400A432A602A6813408022120213432B6000F02FFC22684D4B1340042213432360236800F022FC2B681E432E6000F021FC380000F01EFC83E7AA
:400C40002268444B13400422134323602368F3E7C02500F00EFC3D4C2D02236806002B422CD000F006FC80212268394BC9011A400A43226022681340802212021343236013
:400C800000F0FBFB2F4B334A19680A4004210A431A601B6800F0EDFB23681D43256000F0ECFB300000F0E9FB4EE72268294B13408022D200134323602368F2E7214B254AE8
:400CC00019680A4004210A431A601B68E9E7C02600F0CFFB1D4C360223680500334224D000F0C7FB80212268194BC9011A400A43226022681340802212021343236000F020
:400D0000BCFB104A134B11680B408021C9000B431360136800F0ADFB23681E43266000F0ACFB280000F0A9FB0EE7064A094B11680B408021C9000B4313601368F1E7C0469C
:400D40000C020B4010020B400808080000010B40FF3FFFFFFBFBFBFF10B50A4C2378002B03D100F063F8012323708021064A090613680B200B431360FFF780FD00F0CEF8E6
:400D800010BDC0469401002000002740F0B55F4656464D464446F0B4002927D01C4B8C4699461C4B022698461B4B1C4D9A461C4B1C4C9B461C4984442A68236807789A42F4
:400DC0001AD02A680132202A1FD023689342FCD04B461E6043469F542A600B681E4202D10B6833430B6001306045E5D13CBC90469946A246AB46F0BD53461F221B68134061
:400E0000082BDED05B461F60EDE70022DDE7C046800F2740EC010020080227401002002040022740E4010020880F274070B500241F4A204B04251A601F4B204A1C60204B24
:400E40000B201A601F4A204B1A6007221F4B1A601F4B063A1C601F4B1A601F4A1F4B1A601F4B1C601F4B1D60FFF712FD03210B20FFF7E8FC1C490B20FFF7DCFC1B4B1C60E0
:400E80001B4B1C601B4B1C601B4B1C601B4B1D601B4B1C601A681B4B1A801B4B1C601B4B1C601B4B1C701B4B1C601B4B1C6070BD0F000002000027404000274001000A0074
:400EC00048002740070200800003274004032740100327404400274007000080000227400402274050002740C9140000880E2740C80E2740480F2740080F2740C80F274018
:400F0000880F27409C0100200C020020E80100203502002010020020E4010020F02205490B689343603A13430B60034B1A88034B1A607047000702409C010020880F2740BA
:400F400010B56420FFF7AEFC002000F043FA012000F04EFA00F040FB00F0C0F900F0D0F97021072000F0DAF80121012000F0D6F80121022000F0D2F80321032000F0CEF8DF
:400F80001F21042000F0CAF87821052000F0C6F82621062000F0C2F800211C2000F0BEF801211D2000F0BAF80221112000F0B6F87E21002000F0B2F89620FFF797FC10BD3D
:400FC00010B50021002803D1002000F0FFF810BD002000F035F9FAE710B50021002000F02FF910BD10B50021002000F0EFF810BD10B5011C7D2800D97D21C9B2052000F0F9
:401000008DF810BD10B5002806D00A00052904D801000A2000F09CF810BD0522F8E7C04610B5002806D00A00052904D80100102000F08EF810BD0522F8E7C04610B500F0F3
:401040003BF9012000F0C6F90F20FFF74FFC002000F0C0F910BDC04610B5012000F0BAF910BDC04610B5002000F0B4F910BDC04610B500F099F910BD10B500280CD0202989
:401080000BD800F077F9012000F0A4F90F20FFF72DFC002000F09EF910BD2021F1E7C04610B500F081F94006C00F10BD70B504000D00002809D0002000F08CF92000290038
:4010C00000F030F9012000F085F970BD10B50521172000F059F810BD10B57021072000F01DF810BD0121814010B5C9B2072000F015F810BD10B500F057F970231840202850
:4011000009D0402805D0102801D0702010BD0420FCE70620FAE70520F8E7C04670B50C00050000F07DFA00F0AFFA002000F060F92020284300F084FA200000F081FA00F0E8
:4011400067FA0228FBD1013800F052F970BDC04670B514000D00060000F062FA00F094FA002000F045F92020304300F069FA2100280000F073FA013400F04AFAA042FBD14A
:40118000012000F035F970BD70B505000C0000F047FA00F079FA002000F02AF9280000F04FFAFF2000F04CFA00F032FA0228FBD1013800F01DF900F025FA00F023FAFF2381
:4011C00018402041FE3B184070BDC046F8B507000E0000F025FA00F057FA002000F008F9380000F02DFAFF2000F02AFA00F010FA0228FBD1013800F0FBF800F003FA00F0E4
:4012000001FAFF2303403341012504001D4216D000F006FA00F038FA002000F0E9F8B5402020AC43384300F00BFAE0B200F008FA00F0EEF90228FBD1013800F0D9F8F8BDD4
:40124000F8B507000E0000F0EBF900F01DFA002000F0CEF8380000F0F3F9FF2000F0F0F900F0D6F90228FBD1013800F0C1F800F0C9F900F0C7F9FF230340334101250400F3
:401280001D4217D100F0CCF900F0FEF9002000F0AFF82020384300F0D3F92800B0400443E0B200F0CDF900F0B3F90228FBD1013800F09EF8F8BDC04610B500F0B1F900F01B
:4012C000E3F9002000F094F8E32000F0B9F900F09FF90128FBD100F08BF810BD10B500F09FF900F0D1F9002000F082F8E22000F0A7F900F08DF90128FBD100F079F810BD58
:4013000010B500F08DF900F0BFF9002000F070F8E12000F095F900F07BF90128FBD100F067F810BD70B504000E0000F079F900F0ABF9002000F05CF8612000F081F900F0F2
:4013400067F90028FBD000F05DF9A519002E0CD0FF2000F075F900F05BF90028FBD000F051F920700134AC42F2D1012000F040F870BDC04670B50C00050000F051F900F0CC
:4013800083F9002000F034F8A02000F059F92100280000F063F9013400F03AF9A042FBD1012000F025F870BD10B500F039F900F06BF9002000F01CF8FF2000F041F900F0E5
:4013C00027F90128FBD100F013F800F01BF9C0B210BDC0460300102004491B010A688243D2B21840104308607047C04600040440030008200449DB000A688243D2B21840BF
:40140000104308607047C046000404402020034A1368184010604009C0B270471004044010B51024074B1C60074B186500F021F8C023064A11680B43136000F01EF8044BF1
:401440001C6010BD80E100E00000002004E400E000E100E01022014B1A60704780E200E00230800803D00138FDD1C046C046C0467047EFF3108072B6704780F310887047D8
:4014800010B50400FFF7F5FF102C15D9202C0BD9302C06D803220B490B689343013A13430B60FFF7EAFF10BD032206490B689343023A13430B60F4E70321024A13688B432D
:4014C0001360EEE730001040F0B54746314B80B41B68002B00D098472F4B1B685B0726D52E4B2F49984620232E4D2F4E2F4F9C462F4C1F2009E02A6893420ED03268D2B21B
:40150000FA540B60236818420ED00B680133212BF1D100232A689342F0D13368624643461A7023681842F0D10422224B1A60224B1B689B0722D521482149224F224E234D79
:401540001F2407E0FA5CD2B232600B602B682340082B10D002680B689A4212D00B680133202BEFD10023FA5CD2B232600B602B682340082BEED10222154B1A6004BC90469E
:40158000F0BD0221134A13688B4313600222104B1A60F3E798010020CC0F2740350200200C020020E8010020400327401402002008032740C00F27408C0F2740100200202A
:4015C000E4010020EC0100204002274008022740800F2740880F274010B5084C2378002B03D100F061F8012323708021044A090613680B43136000F09FF810BD9E010020CB
:4016000000002440014B18687047C046400324401F20024B1B6818407047C046080324408021054B49021A680A431A601968034A0A401A607047C04604032440FFFFFEFF49
:401640001F2204490B681340082BFBD0024B18607047C046080224404002244070B5461800290BD01F220649064D04780B681340082BFBD001302C60B042F6D170BDC0462F
:4016800008022440400224408021054B49021A680A431A601968034A0A401A607047C04604022440FFFFFEFF0720124A124B13491A60134A134B1360134B0B60134908606C
:4016C00013490B60002313490B6013490B6013490B6013490B6013490B6013490B6013490B600968124B19801168124B0B4013607047C0460F0000010000244000032440FC
:40170000200024400100008007010080040324400002244004022440880E2440C80E2440480F2440080F2440C80F2440880F2440A0010020FFFFFFF3F021054A09011368AB
:401740000B431360034B1A88034B1A607047C04600040240A0010020880F2440002243088B4274D303098B425FD3030A8B4244D3030B8B4228D3030C8B420DD3FF220902F6
:4017800012BA030C8B4202D31212090265D0030B8B4219D300E0090AC30B8B4201D3CB03C01A5241830B8B4201D38B03C01A5241430B8B4201D34B03C01A5241030B8B4235
:4017C00001D30B03C01A5241C30A8B4201D3CB02C01A5241830A8B4201D38B02C01A5241430A8B4201D34B02C01A5241030A8B4201D30B02C01A5241CDD2C3098B4201D3EE
:40180000CB01C01A524183098B4201D38B01C01A524143098B4201D34B01C01A524103098B4201D30B01C01A5241C3088B4201D3CB00C01A524183088B4201D38B00C01A48
:40184000524143088B4201D34B00C01A5241411A00D20146524110467047FFE701B5002000F006F802BDC0460029F7D076E770477047C046014B18687047C0464C010020F7
:401880000E4B70B500251E000D4CE41AA410A54204D0AB00F35898470135F8E700F0FCFC084B00251E00084CE41AA410A54204D0AB00F35898470135F8E770BDA42200009B
:4018C000A4220000A4220000AC220000002310B59A4203D0CC5CC4540133F9E710BD03008218934202D019700133FAE7704700000EB410B59DB002A9029008610B488224CA
:4019000088604861012040421FABC881084804CBA400006801938C8100F06EF80023029A13701DB010BC08BC03B01847FFFFFF7F4C010020F0B58E6885B007000C0003922C
:4019400001939E4243D890238A89DB001A423ED003250969236801985B1A029363695D43EB0F5D19029B6D1001331B18AB4200D91D00530510D52900380000F037FB061EE1
:4019800014D0029A2169FFF7A1FFA289194B134080221343A38112E02A00380000F086FB061E0CD12169380000F0D4FA0C23402201203B60A38940421343A38117E0029B3A
:4019C0002661F61826606561019EED1AA560019BB34200D21E0032000399206800F0A5FA0020A3689B1BA36023689E19266005B0F0BDC0467FFBFFFFF0B59FB0029005934B
:401A00008B890F0016001B0610D50B69002B0DD1402100F0EBFA38603861002804D10C23029A01381360D8E040237B61002306AD6B6120336B761033AB7634002378002BE4
:401A400003D1A31B049312D003E0252BF9D00134F4E7A31B320039000298FFF76BFF431C00D1B4E06A69049B944663446B612378002B00D1ABE00122002352426A6002A938
:401A80005432521801342B60EB60AB601370AB65534E21780522300000F03CFA002807D00123801B83402A68013413432B60EFE72B68DA0604D55322202102A81218117080
:401AC0001A0704D553222B2102A81218117022782A2A03D0099B00200A210EE0059A111D12680591002A01DB099204E05242EA60022213432B6001340BE02278303A092A9C
:401B000004D84B4301349B180120F6E7002800D0099323782E2B1ED163782A2B0AD1059B02341A1D1B680592002B01DA01235B42079310E000230A201A0001346B6021785B
:401B40003039092904D84243013452180123F6E7002B00D00792234E21780322300000F0D9F9002806D04023801B83402A68013413432B60217806221B48661C297600F078
:401B8000C9F9002812D0194B002B06D10722059B073393430833059314E005AB00933A00134B2900029800E000BF07E005AB00933A000F4B2900029800F08AF80390039BF2
:401BC000013304D06B69039A9B186B6135E7BB890B985B0601D5012040421FB0F0BDC046652200006B2200006F2200000000000035190000F7B5170001938A680B6900904E
:401C00000C00934200DA130022003B6043321278002A01D001333B6023689B0602D53B6802333B60062523681D401ED0230043331B785A1E9341226892061CD53020E11805
:401C40004331087021005A1C45310978A2184332023311700FE022000123193201990098089EB047431C0ED00135E3683A689B1A9D42F0DBDAE72200019943320098089DC8
:401C8000A847431C02D10120404220E006232068E1683A6803400025042B03D18D1AEB43DB171D40A3682269934201DD9B1AED180027BD420AD0220001231A32019900986E
:401CC000089EB047431CDED00137F2E70020FEBDF0B58BB006920A0043320793059004920A7E0C00109B6E2A00D1ABE011D8632A22D009D8002A00D1B5E0582A00D0C5E08F
:401D000045310A70814A4FE0642A1DD0692A1BD0BCE0732A00D1AAE009D86F2A29D0702A00D0B3E0202209680A43226037E0752A1FD0782A33D0A9E00E001A684236111D31
:401D4000196013683370A4E021681A68080606D4490604D5111D19600023D55E02E0111D19601568002D3BDA2D23049A6D42137036E021681A68080606D4490604D515681A
:401D8000111D1960ADB202E0111D196015685F4B227E039308276F2A1DD00A271BE022007821453211705A4A19680392081D226818600D68100602D4500600D5ADB2D307FD
:401DC00002D520231A4322601027002D03D1202322689A4322602300002243331A7002E00A274A4B03936368A360002B09DB0422216891432160002D05D1049E002B11D071
:401E00007BE0002D79D0049E28003900FFF72CFD039B013E5B5C280033703900FFF79EFC051EF1D1082F09D12368DB0706D563682269934202DC3023013E3370049B9B1BB6
:401E400023612BE009681A68080607D4490605D5111D19601368A28A1A8004E0111D1960136862691A600023049E236116E01A68111D1960166800216268300000F04AF868
:401E8000002801D0801B6060636803E0260042363270012323610023049A1370079B09AA00932100069B0598FFF7A4FE431C02D10120404227E02369320006990598079D9B
:401EC000A847431CF4D0236800259B070FD4099BE068984217DA180015E022000123193206990598079EB047431CE1D00135E368099A9B1A9D42F0DBE9E72600039B4236CF
:401F00001B7833708EE70BB0F0BDC0467622000087220000C9B28218904204D003788B4202D00130F8E70020704710B5884202D98B18984201D3002305E09B1A013A08D3FD
:401F4000995C8154FAE7934203D0CC5CC4540133F9E710BD70B50500002944D00C1F2368002B00DAE418280000F0D8F81E4A13681100002B02D16360146031E0A3420DD9E2
:401F80002268A018834203D118685B688218226063600C6024E0A24203D813005A68002AF9D11E689819A0420BD12168711858181960824214D110685268411819605A60D5
:401FC0000EE0A04202D90C232B6009E021686018824203D1106852684118216062605C60280000F09CF870BDA8010020032370B5CD1C9D43083506000C2D01D20C2501E059
:40200000002D01DBA94202D90C23336048E0300000F084F8234B1C681A002100002913D00B685B1B0DD40B2B02D90B60CC181EE08C4202D1636813601AE04B6863600C008F
:4020400016E00C004968E9E7174C2368002B03D1300000F051F820602900300000F04CF8431C18D00323C41C9C43A0420DD12560300000F054F8200007220B30231D904306
:40208000C31A0ED05A42E2500BE0211A300000F033F8431CEBD10C233000336000F03FF8002070BDA8010020A4010020F8B506000C001500002904D11100FFF797FF0400A4
:4020C00018E0002A03D1FFF745FF2C0012E000F027F885420ED929003000FFF787FF071E07D021002A00FFF7F1FB21003000FFF731FF3C002000F8BD002370B5064C0500B0
:4021000008002360FEF73CFA431C03D12368002B00D02B6070BDC04638020020704770470B1F1A68101F002A04DA891804390B68D0180438704700000000000001234567CB
:402140008900000072657472616E736D697474696E67207061636B65740D0A00737461747573203D20253032580D0A0064617461203D20253032582C2025303258200D0ABD
:4021800000000000737461747573203D2025303258200D0A000000000E320F4010330F4002400F4009410F400F430F401002120118011A0234033E1058045B045F0183017E
:4021C000B101D904DC80DF310E881F20210238016E8078028102864088028B208C018E04C250CE01DE01E2805B04D64053045810830484108B049F04D4A0E280E640000A05
:402200000402068019086801700188048D088E80C00CC608DA02DC01E206E608030405060708090A0B0C0E0F101112131415161718191B1C1D1E1F202122232526272829B0
:402240002A2B2E2F3031323334350000EEDBC9B9AA9B8E82766B60564D443B332C241D17100A044300232D302B2000686C4C00656667454647003031323334353637383966
:40228000414243444546003031323334353637383961626364656600F8B5C046F8BC08BC9E46704761030000F9050000F8B5C046F8BC08BC9E46704739030000D02200000B
:4022C000C000002090000000F0000000000000000000000001000000000100004002002080BB000001000000300000000000C05D006CDC02F000000004040400000000004B
:402300000000000000000000000000000000000000000000000000000000000063220000000000000000000000000000000000000000000000000000000000000000000018
:4023400000000000000000000000000000000000000000000000000000000000EC000020000000000000000000000000000000000000000000000000000000000000000051
:40238000000000000000000000000000000000000000000000000000000000000000000000000000000000000000000000000000000000000000000000000000000000001D
:4023C00000000000000000000000000000000000000000000000000000000000000000000000000000000000000000000000000000000000000000000000000000000000DD
:40240000000000000000000000000000000000000000000000000000000000000000000000000000000000000000000000000000000000000000000000000000000000009C
:40244000000000000000000000000000000000000000000000000000000000000000000000000000000000000000000000000000000000000000000000000000000000005C
:020000040001F9
:0200000490303A
:02000000765137
:0200000490402A
:4000000000000000000000000000000000000000000000000000000000000000000000000000000000000000000000000000000000000000000000000000000000000000C0
:400040000000000000000000000000000000000000000000000000000000000000000000000000000000000000000000000000000000000000000000000000000000000080
:0200000490501A
:0C0000000002112D11A10001113887F23F
:0200000490600A
:0100000001FE
:00000001FF