:400000000040002011000000850600008506000010B500F059FBC04610B512221D4B1A60302000F02DFD1C4A1C4B1A60BC2292011B4B1A601B4B1C4A1A60882292011B4966
:400040000A601B4919601B490A601B4A1A6000241A4A14601A4A1A6080221206194B1A608022D202184B1A604322184B1A60023A174B1A600132174B1A60023A164B1A6047
:400080001649072000F034FC072000F01BFC144B1C6010BD300010400600008004010B400C0301400000014043FF00800403014041FF00800803014042FF008000030140C2
:4000C00040FF008008010B4000010B402C010140140101400C01014008010140D50B00000C020B4010B572B600240FE026486200131959000B00411889881A5AC318588813
:400100000004104300F0B8FA0134E4B2012CEDD91E4A1F4B1A601F4A1F4B1A6099221F4B1A6099231B041E4A13601E4A13601E4A117806230B43DBB21370C02252031B4B2A
:400140001A6002231A4A13601A491B4A11601B4A136005221A490A601A481B4908601B490A6020211A4A116080214902194A1160194A13603121194A1160194A1360FFF76A
:400180004BFF00F069FA10BD401D000099EE000000030240FF0F0000000402400007024010500F4030500F4000700F400801044000030440B10D00000803044018030440D2
:4001C000000404408EED00000804044018040440000604400806044000070440080704401807044010B5064C2378002B07D1054B002B02D0044800E000BF0123237010BD7E
:4002000050010020000000002C1D0000084B10B5002B03D00749084800E000BF07480368002B00D110BD064B002BFBD09847F9E700000000540100202C1D0000C000002088
:400240000000000010B501F039F901F0A5F9002001F066FA502001F05BF9732001F058F901F018F90228FBD1013801F059FA10BD10B501F023F901F08FF9002001F050FA24
:40028000602001F045F9FF2001F042F901F002F90228FBD101F0E4F801F0E2F8C4B2012001F03EFA200010BD10B500F029F900F0FFFC00F027FE00F08DFF00F041FFFFF7A4
:4002C000C1FF00F0F9FE782000F002FF01F048FA00280BD10F4C0521200000F021FF2100083105220A2000F001FF0AE0094C20000830052100F014FF052221000A2000F029
:40030000F5FE00F023FF00F07DFF00F07FFF00F069F910BD301D000070B5104B1C685D6800F0F2FC002803D100220D4B1A6013E00B4B1B68984205D03234094B5C60186072
:40034000002009E0064B5B689C4204D30022044B1A60012000E0002070BDC046800100206C01002070B501F003FA00281ED100F009FF00281AD001F0EBF9C043C0B201F0CF
:40038000DBF9FFF775FF010085B2194800F002FF00F01AFF00F036FF002405E0144B185D00F030F90134A4B2AC42F7D3114B1C685D6800F03DF9002804D100220E4B9A60D1
:4003C000002013E00C4A9268904205D032340A4BDC609860002009E0074BDB689C4204D30022054B9A60012000E0002070BDC04600020020800100206C01002070B562B664
:40040000FFF752FFFFF7AEFF002802D00122304B1A74FFF781FF002802D001222C4B5A742B4B1B7C002B18D0294C0023237400F0FFF8A074002405E000F0ECF8254B1855D0
:400440000134A4B2224B9B7C9C42F5D300F0FCF81F4B997C1F4800F0A5FC1D4B5B7C002BD0D01B4C0023637400F076FE00F02AFE032000F075FA00F047FCE07400F0C6FEC8
:400480001DE000F041FC1F2803D800F03DFC85B200E02025002404E000F01AFC0E4B185501342900AC42F7D30B4800F083FE01F05FF90028FBD100F0A9FE00F085FE00F086
:4004C00023FC0028DDD100F0F7FD00F03FFE99E76C01002000020020E001002070B507490C684D680122002312196B410A604B60012000F091F900F0C9F970BD80010020DB
:4005000010B5034800F0B4F900F076F910BDC046DD040000002804D0002343608360002001E001204042704770B5041E14D043685B000268D1524368581CE568290001F0B7
:400540003DFB6160A068814209D10130290001F035FBA160002003E00120404200E0002070BDC04684B0881A41424841C0B204B07047C04670B504000D00002816D0002956
:4005800017D000686168A268E368FFF7EBFF002812D1A3685B0022689B5A2B80A368581CE16801F00BFBA160002007E00120404204E00120404201E00120404270BDC046AB
:4005C00084B00393914204D3521A9C46624492B202E0521A013A92B2039B9A1A90B204B07047C04610B5064C80235B00E3602000FFF790FFE368580001F012FB206010BD92
:400600000003002010B501000148FFF78DFF10BD0003002010B582B06B469C1D21000348FFF7A8FF208802B010BDC0460003002010B5044B186859689A68DB68FFF7C0FF0D
:4006400010BDC0460003002010B50248FFF762FF10BDC046000300200323044A1360044A13600022034B1A607047C0463000304030003140000E3F4010B50A00002101F02A
:40068000D9FA10BD10B501F09FFA03680C2B00D1FEE7FEE710B50300094A1068C318094A9A1A802109018A4202DC054A136005E001F08AFA0C2303600120404210BDC04620
:4006C000C4000020D807002070B50F4E0F4D13E029686B68AC68002202E001C901C30432A242FAD1E868002202E0002102C304328242FAD11035013E002EE9D101F06AFA97
:40070000FFF77CFEFEE7C04601000000BC1D000010B50E4A136801218B43136000230AE0032B03D89A000A49505800E009489900094A885001332F2BF2D9FFF7D3FC034A7E
:40074000116801230B43136010BDC046000010400000000085060000000000200004000C014B18607047C046080120400004000C014B18607047C0461401204070B5040024
:400780000D0001F006F8AC40024B1C6001F005F870BDC0460800204010B500F0FAFF064A116801230B43136000F0F7FF18210120FFF7E4FF10BDC04600002040014B186093
:4007C0007047C0463801204010B580229204084B1A600C22074B1A600120FFF7EFFFFA208000FFF7C3FF0020FFF7B8FF10BDC046000120402401204010B5064B1B78002B2E
:4008000004D1FFF7E1FF0122024B1A70FFF7C4FF10BDC04688010020014B18607047C046300120408C23014AD05070470000002010B5040000F0ADFF044A13689B009B086F
:40084000A4071C43146000F0A8FF10BD10E400E080221203014B1A607047C04600E100E080221203014B1A607047C04680E100E010B50400FFF7F4FF2000FFF7D3FF03208F
:40088000FFF7D6FFFFF7E4FF10BDC04680221203014B1A607047C04680E200E0024A1168024B0B401360704700002240FFFFFFBF034B18688023DB05184000D0012070474F
:4008C000000022401F2318401E3B8340014A13607047C04600E100E01F2318401E3B8340014A13607047C04680E100E001BE704770B504000D001F2802D90020FFF7F6FF59
:400900001034A40080239B059C4664442068256070BDC04670B504000E00032902D90020FFF7E4FF1F2C02D90020FFF7DFFF03252540ED00063500F02CFFA408A400074BFF
:400940009C46644421680323AB4099430B003100A9401943216000F020FF70BD00E400E010B5040006E0084B586800F009FF074B9C46644480231B029C42F4D8024B986828
:40098000604300F0FDFE10BDC80000200080FFFF30B583B000F0C8F800285AD000F0F9FE040000230AE02C4A12683F210A402B49C95C8A4201D1033303E001332D2BF2D923
:4009C0000323274A1268D20606D1254802681F218A4313390A430260224A1168224A0A40224959438020C00184466144C90B01394905490D0A43A021490311430800192B3A
:400A000002D81B4B1A430EE01A4A9A1812781A3B1249C9183023CB5CD318FF2B00D9FF239B0502001A430F4B1A60134D2B680193302000F0B5FE114A13688021C9050B4390
:400A400013601420FFF78CFF019B2B60200000F0A4FE03B030BDC0462CFF0B404C1D000034FF0B400800224000F800C040420F000000D43FCDF1FF0F3000104000002240FE
:400A800030B587B0040000F084FE0500FFF710FF002803D0FFF702FF012100E00021104B1B6800930F4B1B680193033C0E4B1B5D02930E4B1B68039304AA0D4B04936B463E
:400AC00005930C4B1A600C480C4A10601B68012901D1FFF75DFF280000F05FFE07B030BD08010B4000010B404C1D000030001040B6EA00000800104017000080040010401D
:400B000010B5034B1B7B584300F03AFE10BDC046C8000020034B1868C0231B02184000D00120704700010B40034B1B68002B01DA012000E0002070470000224010B500F0AE
:400B400028FE044A1368C02109020B43136000F024FE10BD00010B4010B500F01AFE08490A68084B1A408024E40122430A600A6813408022120213430B6000F00EFE10BD14
:400B800000010B40FF3FFFFF70B5050000F001FE0400FFF7BFFF002803D0FFF7DDFF012100E0002108482840084A1568084B2B40184310601368012901D1FFF7BFFF200091
:400BC00000F0EBFD70BDC0460404040010020B40FBFBFBFF10B5244B1B685B0715D5234B5B685B070ED5224B596A042001401F4C62688A4362605A6A82435A629B69002B4B
:400C000000D098470420FFF7BFFF174B1B685B0518D5164B5B685B0510D5154B596A8022D2001140114842688A434260596A114A0A405A62DB69002B00D098478020C00096
:400C4000FFF7A2FF084B1B685B030CD5074B5B685B0304D5064B1B6A002B00D098478020C002FFF791FF10BD10020B40DC0000208C010020FFFBFFFF10B50B20FFF722FE13
:400C800010BDC04610B500F00FF910BD10B500F095F810BD10B5054A1368802109060B431360FFF7E9FFFFF7EDFF10BD0000274010B5064B1B78002B04D1FFF7E7FF01222C
:400CC000024B1A70FFF7E6FF10BDC046B40100200A4B1A680A4B1B689A420DD0084B1B6801330222FF32934200D10023054AD05CC0B2034A136000E000207047180400206A
:400D00001403002020040020074B1B68074A1268934203D3054A1068181A04E0034A10681B1A981CFF3070471804002014030020154B1A68154B1B689A4208D1144B1B68AD
:400D40001F221340082B02D0124B18601BE00E4B1A68013280235B009A4200D100220B4B1B689A42FBD002230B490B60C0B20B49885405490A600A4A1268134203D1084A28
:400D800011680B43136070471C040020100300200802274040022740800F274018030020880F274070B506000D00002403E0305DFFF7BEFF0134AC42F9D370BD70B5204A5C
:400DC000204B1A600024204B1C60204A204B1A60204B214A13600721204A1160204A14600639204A1160204A1360204B1C6004251F4B1D600B20FFF76FFD03210B20FFF7CA
:400E000089FD1C490B20FFF773FD1B4B1C601B4B1C601B4B1C601B4B1C601B4B1D601B4B1C601A681A4B1A801A4B1C601A4B1C601A4B1C701A4B1C601A4B1C6070BDC046C0
:400E40000B000002000027404000274001000A00480027400700008000032740040327401003274044002740000227400402274050002740F5170000880E2740C80E274046
:400E8000480F2740080F2740C80F2740880F2740BC0100201804002014030020210500201C0400201003002005490B68F0229343603A13430B60034B1A88034B1A6070473E
:400EC00000070240BC010020880F274010B50920FFF7F8FC10BDC04610B500F099F810BD10B500F01FF810BD10B5054A1368802109060B431360FFF7E9FFFFF7EDFF10BDEA
:400F00000000254010B5064B1B78002B04D1FFF7E7FF0122024B1A70FFF7E6FF10BDC046C001002070B5204A204B1A600024204B1C60204A204B1A60204B214A13600721FF
:400F4000204A1160204A14600639204A1160204A1360204B1C6004251F4B1D600920FFF7BBFC03210920FFF7D5FC1C490920FFF7BFFC1B4B1C601B4B1C601B4B1C601B4B95
:400F80001C601B4B1D601B4B1C601A681A4B1A801A4B1C601A4B1C601A4B1C701A4B1C601A4B1C6070BDC0460B000002000025404000254001000A00480025400700008071
:400FC00000032540040325401003254044002540000225400402254050002540E1180000880E2540C80E2540480F2540080F2540C80F2540880F2540C80100203407002092
:401000002C05002031070020280500202405002005490B68F0229343603A13430B60034B1A88034B1A60704700030240C8010020880F2540022807D0032809D001280AD1CB
:401040000322054B1A7006E00422034B1A7002E00522014B1A707047E400002010B53F21012000F0F3F80121022000F0EFF80321032000F0EBF80021042000F0E7F87821F0
:40108000052000F0E3F80621062000F0DFF83F211C2000F0DBF805211D2000F0D7F82021112000F0D3F81B21002000F0CFF80320FFF7C0FF10BDC04610B50021002000F0CA
:4010C00023F910BD10B50021002000F015F910BD10B501007D2800D97D21052000F0B6F800F02EF900F032F910BDC04610B5002912D00A2810D30B2802D90F2809D90BE095
:40110000064B1B78934200D313001A0000F0D6F802E0012200F0D2F810BDC046E400002010B5002808D0054B1A788A4200D30A000100102000F0C2F810BDC046E4000020A0
:4011400010B502211D2000F0DFF810BD10B5012000F0DAFA10BDC04610B5002000F0D4FA10BDC04610B5012000F0CEFA0F20FFF7C7FC002000F0C8FA10BDC04610B500F0E3
:401180002DF910BD10B5FFF7F9FF80090123184010BDC04670B504000D00002809D0002000F0B2FA2900200000F0D6F8012000F0ABFA70BD10B5002805D0202903D800F0FE
:4011C000F3F8FFF7CFFF10BD10B57021072000F03DF810BD10B56420FFF7C2FB00F030F9002000F091FA012000F09AFA00F0A8F800F0ACF8FFF7E8FFFFF730FF9620FFF7DD
:401200007FFC10BD10B500F09BF810BD10B500F09DF810BD10B5040000F050F900F0BCF9002000F07DFA200000F072F9FF2000F06FF900F02FF90228FBD1013800F070FA79
:4012400000F00EF900F00CF9C0B210BD70B505000C0000F033F900F09FF9002000F060FA20202843C0B200F053F9200000F050F900F010F90228FBD1013800F051FA70BDBD
:4012800070B504000D001600FFF7C4FF03002B41DB0702D5002E02D00FE0002E0DD0002E04D00121A9400843C1B203E00123AB409843C1B22000FFF7C9FF70BD70B50600C6
:4012C0000D00140000F0FAF800F066F9002000F027FA20203043C0B200F01AF92100280000F04EF900F0D6F8631C9842FAD1012000F016FA70BDC04610B5082902D800229B
:40130000FFF7BEFF10BDC04610B5082902D80122FFF7B6FF10BDC04610B5040000F0CEF800F03AF9002000F0FBF9200000F0F0F800F0B0F80128FBD100F0F2F910BDC046DD
:4013400010B5E220FFF7E8FF10BDC04610B5E120FFF7E2FF10BDC046F8B507000E0000F0ADF800F019F9002000F0DAF9612000F0CFF800F08FF80028FBD000F071F800242B
:401380000BE0FF2000F0C4F800F084F80028FBD03D1900F065F828700134B442F1D3012000F0BEF9F8BDC04670B505000C0000F085F800F0F1F8002000F0B2F9B02000F074
:4013C000A7F82100280000F0DBF800F063F8631C9842FAD1012000F0A3F970BD10B500F06DF800F0D9F8002000F09AF9FF2000F08FF800F04FF80128FBD100F091F900F04F
:401400002FF8C0B210BDC04610B50820FFF75AFA10BDC04610B500F0EBF810BD10B500F009F910BD10B5054A1368802109060B431360FFF7E9FFFFF7EDFF10BD000024405C
:4014400010B5064B1B78002B04D1FFF7E7FF0122024B1A70FFF7E6FF10BDC046CC010020094B1A68094B1B689A420BD0074B1B680133412B00D10023054AD05CC0B2034A4B
:40148000136000E0002070473C070020CC07002084070020074B1B68074A1268934203D3054A1068181A04E0034A10681B1A4133180070473C070020CC07002010B5082059
:4014C000FFF70AFA0B4B1A680B4B1A6000220B4B1A700B4B1A68802149020A431A601968084A0A401A60084A084B1A600820FFF7E9F910BDCC0700203C0700203807002085
:4015000004032440FFFFFEFFED0F0000C00F2440144B1A68144B1B689A4208D1134B1B681F221340082B02D0114B186019E00D4B1A680132402A00D100220B4B1B689A4238
:40154000FBD002230B490B60C0B20B49885405490A600A4A1268134203D1084A11680B431360704740070020C80700200802244040022440800F244044070020880F244065
:4015800070B506000D00002403E0305DFFF7C0FF0134AC42F9D370BD10B50820FFF79CF90C4B1A680C4B1A600C4A136802218B4313600B4B1A68802149020A431A6019682B
:4015C000084A0A401A60084A084B1A600820FFF779F910BDC807002040070020880F244004022440FFFFFEFFF3070000800F2440054A1368F02109010B431360034B1A8820
:40160000034B1A607047C04600040240D4010020880F244005490A68054B1A408006C0231B051840104308607047C04620002440FFFFFFF310B51D4A1D4B1A601D4A1E4BDA
:401640001A601E4A1E4B1A6007221E4B1A601E4A1E4B1A6000241E4B1C600820FFF73CF903210820FFF756F91A490820FFF740F9194B1C60194B1C60194B1C60194B1C6027
:401680000422194B1A60194B1C601A68184B1A800020FFF7BFFF174B1C60174B1C60174B1C70174B1C60174B1C6010BD0F00000100002440010000802000244007030080BD
:4016C0000003244004032440070100800002244004022440CD190000880E2440C80E2440480F2440080F2440C80F2440880F2440D40100203C070020CC0700203807002090
:4017000040070020C807002004490A68D2B210239A43000118401043086070470004044004490A68D2B208239A43C00018401043086070470004044004490A68D2B240232A
:401740009A438001184010430860704700010440024B1868800901231840704704010440024B1868400901231840704704060440024B1868400901231840704704040440FE
:401780000230800803D00138FDD1C046C046C0467047EFF3108072B6704780F31088704770B50400FFF7F5FF0500102C05D8104A136803218B43136016E0202C07D80C49D8
:4017C0000B6803229343023A13430B600CE0302C07D807490B6803229343013A13430B6002E00020FFF782F82800FFF7D6FF70BD3000104010B5294B1B68002B00D09847F5
:40180000274B1B685B071FD5264B1B6801330222FF32934200D10023234A1268934205D1224B1B682022224B1A7006E01F4A1268D2B22049CA541B4A13601F4B1B68DB06E2
:40184000E2D104221D4B1A601D4B1B689B0723D51C4B1A681C4B1B689A4215D01A4B1B68013380225200934200D10023174AD25CD2B217490A60144A1360164B1B681F22E8
:401880001340082BE4D104E0134A136802218B4313600222114B1A6010BDC046B8010020CC0F2740180400201403002040032740210500202004002008032740C00F274096
:4018C0008C0F27401C04002010030020180300204002274008022740880F2740800F274010B5294B1B68002B00D09847274B1B685B071FD5264B1B6801330222FF329342F7
:4019000000D10023234A1268934205D1224B1B682022224B1A7006E01F4A1268D2B22049CA541B4A13601F4B1B68DB06E2D104221D4B1A601D4B1B689B0723D51C4B1A6855
:401940001C4B1B689A4215D01A4B1B68013380225200934200D10023174AD25CD2B217490A60144A1360164B1B681F221340082BE4D104E0134A136802218B431360022291
:40198000114B1A6010BDC046C4010020CC0F2540340700202C05002040032540310700203006002008032540C00F25408C0F25402805002024050020300500204002254021
:4019C00008022540880F2540800F254010B5274B1B68002B00D09847254B1B685B071DD5244B1B680133412B00D10023224A1268934205D1214B1B682022214B1A7006E089
:401A00001E4A1268D2B21F49CA541A4A13601E4B1B68DB06E4D104221C4B1A601C4B1B689B0721D51B4B1A681B4B1B689A4213D0194B1B680133402B00D10023174AD25C3F
:401A4000D2B217490A60144A1360164B1B681F221340082BE6D104E0134A136802218B4313600222114B1A6010BDC046D0010020CC0F24403C070020CC07002040032440CB
:401A8000380700208407002008032440C00F24408C0F244040070020C8070020440700204002244008022440880F2440800F2440002243088B4274D303098B425FD3030A1F
:401AC0008B4244D3030B8B4228D3030C8B420DD3FF22090212BA030C8B4202D31212090265D0030B8B4219D300E0090AC30B8B4201D3CB03C01A5241830B8B4201D38B0342
:401B0000C01A5241430B8B4201D34B03C01A5241030B8B4201D30B03C01A5241C30A8B4201D3CB02C01A5241830A8B4201D38B02C01A5241430A8B4201D34B02C01A5241EC
:401B4000030A8B4201D30B02C01A5241CDD2C3098B4201D3CB01C01A524183098B4201D38B01C01A524143098B4201D34B01C01A524103098B4201D30B01C01A5241C3083B
:401B80008B4201D3CB00C01A524183088B4201D38B00C01A524143088B4201D34B00C01A5241411A00D20146524110467047FFE701B5002000F006F802BDC0460029F7D011
:401BC00076E770477047C046014B18687047C046480100200E4B70B500251E000D4CE41AA410A54204D0AB00F35898470135F8E700F0D2F8084B00251E00084CE41AA4105B
:401C0000A54204D0AB00F35898470135F8E770BDA41D0000A41D0000A41D0000AC1D000010B5034B0100186800F00CF810BDC0464801002003008218934202D01970013301
:401C4000FAE77047032370B5CD1C9D43083506000C2D01D20C2501E0002D01DBA94202D90C23336048E0300000F05EF8234B1C681A002100002913D00B685B1B0DD40B2BEF
:401C800002D90B60CC181EE08C4202D1636813601AE04B6863600C0016E00C004968E9E7174C2368002B03D1300000F02BF820602900300000F026F8431C18D00323C41CBA
:401CC0009C43A0420DD12560300000F02EF8200007220B30231D9043C31A0ED05A42E2500BE0211A300000F00DF8431CEBD10C233000336000F019F8002070BDDC010020B7
:401D0000D8010020002370B5064C050008002360FEF7C0FC431C03D12368002B00D02B6070BDC046D007002070477047000000003A294D32530000003A2953324D00000089
:401D400000300F40000400400F400004030405060708090A0B0C0E0F101112131415161718191B1C1D1E1F2021222325262728292A2B2E2F3031323334350000EEDBC9B912
:401D8000AA9B8E82766B60564D443B332C241D17100A044300000000F8B5C046F8BC08BC9E4670470D02000011070000F8B5C046F8BC08BC9E467047E5010000D01D0000CD
:401DC000C000002090000000880600000000000000000000D8070020010000000000C05D80BB000030000000006CDC02F00000000404040005000000000000000000000012
:401E0000000000000000000000000000000000000000000000000000931D0000000000000000000000000000000000000000000000000000000000000000000000000000F2
:401E4000000000000000000000000000000000000000000000000000E80000200000000000000000000000000000000000000000000000000000000000000000000000005A
:401E80000000000000000000000000000000000000000000000000000000000000000000000000000000000000000000000000000000000000000000000000000000000022
:401EC00000000000000000000000000000000000000000000000000000000000000000000000000000000000000000000000000000000000000000000000000000000000E2
:401F000000000000000000000000000000000000000000000000000000000000000000000000000000000000000000000000000000000000000000000000000000000000A1
:401F40000000000000000000000000000000000000000000000000000000000000000000000000000000000000000000000000000000000000000000000000000000000061
:020000040001F9
:0200000490303A
:02000000B50940
:0200000490402A
:4000000000000000000000000000000000000000000000000000000000000000000000000000000000000000000000000000000000000000000000000000000000000000C0
:400040000000000000000000000000000000000000000000000000000000000000000000000000000000000000000000000000000000000000000000000000000000000080
:0200000490501A
:0C0000000002112D11A100011136C6AA4A
:0200000490600A
:0100000001FE
:00000001FF